{
  "_format": "hh-sol-artifact-1",
  "contractName": "Healthcare",
  "sourceName": "contracts/Medical.sol",
  "abi": [
    {
      "inputs": [],
      "stateMutability": "nonpayable",
      "type": "constructor"
    },
    {
      "anonymous": false,
      "inputs": [
        {
          "indexed": false,
          "internalType": "uint256",
          "name": "id",
          "type": "uint256"
        },
        {
          "indexed": false,
          "internalType": "uint256",
          "name": "patientId",
          "type": "uint256"
        },
        {
          "indexed": false,
          "internalType": "uint256",
          "name": "doctorId",
          "type": "uint256"
        },
        {
          "indexed": false,
          "internalType": "uint256",
          "name": "date",
          "type": "uint256"
        }
      ],
      "name": "APPOINTMENT_BOOKED",
      "type": "event"
    },
    {
      "anonymous": false,
      "inputs": [
        {
          "indexed": false,
          "internalType": "uint256",
          "name": "id",
          "type": "uint256"
        },
        {
          "indexed": false,
          "internalType": "bool",
          "name": "isApproved",
          "type": "bool"
        }
      ],
      "name": "APPROVE_DOCTOR_STATUSD",
      "type": "event"
    },
    {
      "anonymous": false,
      "inputs": [
        {
          "indexed": false,
          "internalType": "uint256",
          "name": "id",
          "type": "uint256"
        },
        {
          "indexed": false,
          "internalType": "string",
          "name": "IPFS_URL",
          "type": "string"
        },
        {
          "indexed": false,
          "internalType": "address",
          "name": "accountAddress",
          "type": "address"
        }
      ],
      "name": "DOCTOR_REGISTERED",
      "type": "event"
    },
    {
      "anonymous": false,
      "inputs": [
        {
          "indexed": false,
          "internalType": "uint256",
          "name": "id",
          "type": "uint256"
        },
        {
          "indexed": false,
          "internalType": "bool",
          "name": "active",
          "type": "bool"
        }
      ],
      "name": "MEDICINE_ACTIVE",
      "type": "event"
    },
    {
      "anonymous": false,
      "inputs": [
        {
          "indexed": false,
          "internalType": "uint256",
          "name": "id",
          "type": "uint256"
        },
        {
          "indexed": false,
          "internalType": "string",
          "name": "url",
          "type": "string"
        },
        {
          "indexed": false,
          "internalType": "string",
          "name": "location",
          "type": "string"
        }
      ],
      "name": "MEDICINE_ADDED",
      "type": "event"
    },
    {
      "anonymous": false,
      "inputs": [
        {
          "indexed": false,
          "internalType": "uint256",
          "name": "patientId",
          "type": "uint256"
        },
        {
          "indexed": false,
          "internalType": "uint256",
          "name": "medicineId",
          "type": "uint256"
        }
      ],
      "name": "MEDICINE_BOUGHT",
      "type": "event"
    },
    {
      "anonymous": false,
      "inputs": [
        {
          "indexed": false,
          "internalType": "uint256",
          "name": "id",
          "type": "uint256"
        },
        {
          "indexed": false,
          "internalType": "uint256",
          "name": "discount",
          "type": "uint256"
        }
      ],
      "name": "MEDICINE_DISCOUNT",
      "type": "event"
    },
    {
      "anonymous": false,
      "inputs": [
        {
          "indexed": false,
          "internalType": "uint256",
          "name": "id",
          "type": "uint256"
        },
        {
          "indexed": false,
          "internalType": "string",
          "name": "newLocation",
          "type": "string"
        }
      ],
      "name": "MEDICINE_LOCATION",
      "type": "event"
    },
    {
      "anonymous": false,
      "inputs": [
        {
          "indexed": false,
          "internalType": "uint256",
          "name": "id",
          "type": "uint256"
        },
        {
          "indexed": false,
          "internalType": "uint256",
          "name": "medicineId",
          "type": "uint256"
        },
        {
          "indexed": false,
          "internalType": "uint256",
          "name": "patientId",
          "type": "uint256"
        },
        {
          "indexed": false,
          "internalType": "uint256",
          "name": "doctorId",
          "type": "uint256"
        },
        {
          "indexed": false,
          "internalType": "uint256",
          "name": "date",
          "type": "uint256"
        }
      ],
      "name": "MEDICINE_PRESCRIBED",
      "type": "event"
    },
    {
      "anonymous": false,
      "inputs": [
        {
          "indexed": false,
          "internalType": "uint256",
          "name": "id",
          "type": "uint256"
        },
        {
          "indexed": false,
          "internalType": "uint256",
          "name": "price",
          "type": "uint256"
        }
      ],
      "name": "MEDICINE_PRICE",
      "type": "event"
    },
    {
      "anonymous": false,
      "inputs": [
        {
          "indexed": false,
          "internalType": "uint256",
          "name": "id",
          "type": "uint256"
        },
        {
          "indexed": false,
          "internalType": "uint256",
          "name": "quantity",
          "type": "uint256"
        }
      ],
      "name": "MEDICINE_QUANTITY",
      "type": "event"
    },
    {
      "anonymous": false,
      "inputs": [
        {
          "indexed": true,
          "internalType": "address",
          "name": "user",
          "type": "address"
        },
        {
          "indexed": false,
          "internalType": "string",
          "name": "message",
          "type": "string"
        },
        {
          "indexed": false,
          "internalType": "uint256",
          "name": "timestamp",
          "type": "uint256"
        }
      ],
      "name": "NOTIFICATiON_SENT",
      "type": "event"
    },
    {
      "anonymous": false,
      "inputs": [
        {
          "indexed": false,
          "internalType": "uint256",
          "name": "id",
          "type": "uint256"
        },
        {
          "indexed": false,
          "internalType": "string",
          "name": "_IPFS_URL",
          "type": "string"
        },
        {
          "indexed": false,
          "internalType": "string[]",
          "name": "medicalHistory",
          "type": "string[]"
        }
      ],
      "name": "PATIENT_ADDED",
      "type": "event"
    },
    {
      "inputs": [
        {
          "internalType": "string",
          "name": "_IPFS_URL",
          "type": "string"
        },
        {
          "internalType": "address",
          "name": "_address",
          "type": "address"
        },
        {
          "internalType": "string",
          "name": "_name",
          "type": "string"
        },
        {
          "internalType": "string",
          "name": "_type",
          "type": "string"
        }
      ],
      "name": "ADD_DOCTOR",
      "outputs": [],
      "stateMutability": "payable",
      "type": "function"
    },
    {
      "inputs": [
        {
          "internalType": "string",
          "name": "_IPFS_URL",
          "type": "string"
        },
        {
          "internalType": "uint256",
          "name": "_price",
          "type": "uint256"
        },
        {
          "internalType": "uint256",
          "name": "_quantity",
          "type": "uint256"
        },
        {
          "internalType": "uint256",
          "name": "_discount",
          "type": "uint256"
        },
        {
          "internalType": "string",
          "name": "_currentLocation",
          "type": "string"
        }
      ],
      "name": "ADD_MEDICINE",
      "outputs": [],
      "stateMutability": "nonpayable",
      "type": "function"
    },
    {
      "inputs": [
        {
          "internalType": "string",
          "name": "_IPFS_URL",
          "type": "string"
        },
        {
          "internalType": "string[]",
          "name": "_medicalHistory",
          "type": "string[]"
        },
        {
          "internalType": "address",
          "name": "_accountAddress",
          "type": "address"
        },
        {
          "internalType": "uint256[]",
          "name": "_boughtMedicines",
          "type": "uint256[]"
        },
        {
          "internalType": "string",
          "name": "_name",
          "type": "string"
        },
        {
          "internalType": "address",
          "name": "_doctorAddress",
          "type": "address"
        },
        {
          "internalType": "string",
          "name": "_doctorName",
          "type": "string"
        },
        {
          "internalType": "string",
          "name": "_type",
          "type": "string"
        },
        {
          "internalType": "string[]",
          "name": "_attestation",
          "type": "string[]"
        }
      ],
      "name": "ADD_PATIENTS",
      "outputs": [],
      "stateMutability": "payable",
      "type": "function"
    },
    {
      "inputs": [
        {
          "internalType": "uint256",
          "name": "_doctorId",
          "type": "uint256"
        }
      ],
      "name": "APPROVE_DOCTOR_STATUS",
      "outputs": [],
      "stateMutability": "nonpayable",
      "type": "function"
    },
    {
      "inputs": [
        {
          "internalType": "uint256",
          "name": "_patientId",
          "type": "uint256"
        },
        {
          "internalType": "uint256",
          "name": "_doctorId",
          "type": "uint256"
        },
        {
          "internalType": "string",
          "name": "_from",
          "type": "string"
        },
        {
          "internalType": "string",
          "name": "_to",
          "type": "string"
        },
        {
          "internalType": "string",
          "name": "_appointmentDate",
          "type": "string"
        },
        {
          "internalType": "string",
          "name": "_condition",
          "type": "string"
        },
        {
          "internalType": "string",
          "name": "_message",
          "type": "string"
        },
        {
          "internalType": "address",
          "name": "_doctorAddress",
          "type": "address"
        },
        {
          "internalType": "string",
          "name": "_name",
          "type": "string"
        }
      ],
      "name": "BOOK_APPOINTMENT",
      "outputs": [],
      "stateMutability": "payable",
      "type": "function"
    },
    {
      "inputs": [
        {
          "internalType": "uint256",
          "name": "_patientId",
          "type": "uint256"
        },
        {
          "internalType": "uint256",
          "name": "_medicineId",
          "type": "uint256"
        },
        {
          "internalType": "uint256",
          "name": "_quantity",
          "type": "uint256"
        }
      ],
      "name": "BUY_MEDICINE",
      "outputs": [],
      "stateMutability": "payable",
      "type": "function"
    },
    {
      "inputs": [
        {
          "internalType": "address",
          "name": "pubkey",
          "type": "address"
        }
      ],
      "name": "CHECK_USER_EXISTS",
      "outputs": [
        {
          "internalType": "bool",
          "name": "",
          "type": "bool"
        }
      ],
      "stateMutability": "view",
      "type": "function"
    },
    {
      "inputs": [
        {
          "internalType": "uint256",
          "name": "_appointmentId",
          "type": "uint256"
        }
      ],
      "name": "COMPLETE_APPOINTMENT",
      "outputs": [],
      "stateMutability": "nonpayable",
      "type": "function"
    },
    {
      "inputs": [],
      "name": "GET_ALL_APPOINTMENTS",
      "outputs": [
        {
          "components": [
            {
              "internalType": "uint256",
              "name": "id",
              "type": "uint256"
            },
            {
              "internalType": "uint256",
              "name": "patientId",
              "type": "uint256"
            },
            {
              "internalType": "uint256",
              "name": "doctorId",
              "type": "uint256"
            },
            {
              "internalType": "uint256",
              "name": "date",
              "type": "uint256"
            },
            {
              "internalType": "string",
              "name": "from",
              "type": "string"
            },
            {
              "internalType": "string",
              "name": "to",
              "type": "string"
            },
            {
              "internalType": "string",
              "name": "appointmentDate",
              "type": "string"
            },
            {
              "internalType": "string",
              "name": "condition",
              "type": "string"
            },
            {
              "internalType": "string",
              "name": "message",
              "type": "string"
            },
            {
              "internalType": "bool",
              "name": "isOpen",
              "type": "bool"
            }
          ],
          "internalType": "struct Healthcare.Appointment[]",
          "name": "",
          "type": "tuple[]"
        }
      ],
      "stateMutability": "view",
      "type": "function"
    },
    {
      "inputs": [],
      "name": "GET_ALL_APPROVED_DOCTORS",
      "outputs": [
        {
          "components": [
            {
              "internalType": "uint256",
              "name": "id",
              "type": "uint256"
            },
            {
              "internalType": "string",
              "name": "IPFS_URL",
              "type": "string"
            },
            {
              "internalType": "address",
              "name": "accountAddress",
              "type": "address"
            },
            {
              "internalType": "uint256",
              "name": "appointmentCount",
              "type": "uint256"
            },
            {
              "internalType": "uint256",
              "name": "successfulTreatmentCount",
              "type": "uint256"
            },
            {
              "internalType": "bool",
              "name": "isApproved",
              "type": "bool"
            }
          ],
          "internalType": "struct Healthcare.Doctor[]",
          "name": "",
          "type": "tuple[]"
        }
      ],
      "stateMutability": "view",
      "type": "function"
    },
    {
      "inputs": [],
      "name": "GET_ALL_APP_USER",
      "outputs": [
        {
          "components": [
            {
              "internalType": "string",
              "name": "name",
              "type": "string"
            },
            {
              "internalType": "address",
              "name": "accountAddress",
              "type": "address"
            }
          ],
          "internalType": "struct Healthcare.AllUserStruck[]",
          "name": "",
          "type": "tuple[]"
        }
      ],
      "stateMutability": "view",
      "type": "function"
    },
    {
      "inputs": [
        {
          "internalType": "uint256",
          "name": "patientId",
          "type": "uint256"
        }
      ],
      "name": "GET_ALL_PATIENT_ORDERS",
      "outputs": [
        {
          "components": [
            {
              "internalType": "uint256",
              "name": "medicineId",
              "type": "uint256"
            },
            {
              "internalType": "uint256",
              "name": "price",
              "type": "uint256"
            },
            {
              "internalType": "uint256",
              "name": "payAmount",
              "type": "uint256"
            },
            {
              "internalType": "uint256",
              "name": "quantity",
              "type": "uint256"
            },
            {
              "internalType": "uint256",
              "name": "patientId",
              "type": "uint256"
            },
            {
              "internalType": "uint256",
              "name": "date",
              "type": "uint256"
            }
          ],
          "internalType": "struct Healthcare.Order[]",
          "name": "",
          "type": "tuple[]"
        }
      ],
      "stateMutability": "view",
      "type": "function"
    },
    {
      "inputs": [],
      "name": "GET_ALL_PRESCRIBED_MEDICINES",
      "outputs": [
        {
          "components": [
            {
              "internalType": "uint256",
              "name": "id",
              "type": "uint256"
            },
            {
              "internalType": "uint256",
              "name": "medicineId",
              "type": "uint256"
            },
            {
              "internalType": "uint256",
              "name": "patientId",
              "type": "uint256"
            },
            {
              "internalType": "uint256",
              "name": "doctorId",
              "type": "uint256"
            },
            {
              "internalType": "uint256",
              "name": "date",
              "type": "uint256"
            }
          ],
          "internalType": "struct Healthcare.Prescription[]",
          "name": "",
          "type": "tuple[]"
        }
      ],
      "stateMutability": "view",
      "type": "function"
    },
    {
      "inputs": [
        {
          "internalType": "uint256",
          "name": "patientId",
          "type": "uint256"
        }
      ],
      "name": "GET_ALL_PRESCRIBED_MEDICINES_OF_PATIENT",
      "outputs": [
        {
          "components": [
            {
              "internalType": "uint256",
              "name": "id",
              "type": "uint256"
            },
            {
              "internalType": "uint256",
              "name": "medicineId",
              "type": "uint256"
            },
            {
              "internalType": "uint256",
              "name": "patientId",
              "type": "uint256"
            },
            {
              "internalType": "uint256",
              "name": "doctorId",
              "type": "uint256"
            },
            {
              "internalType": "uint256",
              "name": "date",
              "type": "uint256"
            }
          ],
          "internalType": "struct Healthcare.Prescription[]",
          "name": "",
          "type": "tuple[]"
        }
      ],
      "stateMutability": "view",
      "type": "function"
    },
    {
      "inputs": [],
      "name": "GET_ALL_REGISTERED_DOCTORS",
      "outputs": [
        {
          "components": [
            {
              "internalType": "uint256",
              "name": "id",
              "type": "uint256"
            },
            {
              "internalType": "string",
              "name": "IPFS_URL",
              "type": "string"
            },
            {
              "internalType": "address",
              "name": "accountAddress",
              "type": "address"
            },
            {
              "internalType": "uint256",
              "name": "appointmentCount",
              "type": "uint256"
            },
            {
              "internalType": "uint256",
              "name": "successfulTreatmentCount",
              "type": "uint256"
            },
            {
              "internalType": "bool",
              "name": "isApproved",
              "type": "bool"
            }
          ],
          "internalType": "struct Healthcare.Doctor[]",
          "name": "",
          "type": "tuple[]"
        }
      ],
      "stateMutability": "view",
      "type": "function"
    },
    {
      "inputs": [],
      "name": "GET_ALL_REGISTERED_MEDICINES",
      "outputs": [
        {
          "components": [
            {
              "internalType": "uint256",
              "name": "id",
              "type": "uint256"
            },
            {
              "internalType": "string",
              "name": "IPFS_URL",
              "type": "string"
            },
            {
              "internalType": "uint256",
              "name": "price",
              "type": "uint256"
            },
            {
              "internalType": "uint256",
              "name": "quantity",
              "type": "uint256"
            },
            {
              "internalType": "uint256",
              "name": "discount",
              "type": "uint256"
            },
            {
              "internalType": "string",
              "name": "currentLocation",
              "type": "string"
            },
            {
              "internalType": "bool",
              "name": "active",
              "type": "bool"
            }
          ],
          "internalType": "struct Healthcare.Medicine[]",
          "name": "",
          "type": "tuple[]"
        }
      ],
      "stateMutability": "view",
      "type": "function"
    },
    {
      "inputs": [],
      "name": "GET_ALL_REGISTERED_PATIENTS",
      "outputs": [
        {
          "components": [
            {
              "internalType": "uint256",
              "name": "id",
              "type": "uint256"
            },
            {
              "internalType": "string",
              "name": "IPFS_URL",
              "type": "string"
            },
            {
              "internalType": "string[]",
              "name": "medicalHistory",
              "type": "string[]"
            },
            {
              "internalType": "address",
              "name": "accountAddress",
              "type": "address"
            },
            {
              "internalType": "uint256[]",
              "name": "boughtMedicines",
              "type": "uint256[]"
            },
            {
              "internalType": "string[]",
              "name": "attestations",
              "type": "string[]"
            }
          ],
          "internalType": "struct Healthcare.Patient[]",
          "name": "",
          "type": "tuple[]"
        }
      ],
      "stateMutability": "view",
      "type": "function"
    },
    {
      "inputs": [
        {
          "internalType": "uint256",
          "name": "_patientId",
          "type": "uint256"
        }
      ],
      "name": "GET_BOUGHT_MEDICINE_BY_PAITENT",
      "outputs": [
        {
          "internalType": "uint256[]",
          "name": "",
          "type": "uint256[]"
        }
      ],
      "stateMutability": "view",
      "type": "function"
    },
    {
      "inputs": [
        {
          "internalType": "uint256",
          "name": "_doctorId",
          "type": "uint256"
        }
      ],
      "name": "GET_DOCTOR_APPOINTMENTS_HISTORYS",
      "outputs": [
        {
          "components": [
            {
              "internalType": "uint256",
              "name": "id",
              "type": "uint256"
            },
            {
              "internalType": "uint256",
              "name": "patientId",
              "type": "uint256"
            },
            {
              "internalType": "uint256",
              "name": "doctorId",
              "type": "uint256"
            },
            {
              "internalType": "uint256",
              "name": "date",
              "type": "uint256"
            },
            {
              "internalType": "string",
              "name": "from",
              "type": "string"
            },
            {
              "internalType": "string",
              "name": "to",
              "type": "string"
            },
            {
              "internalType": "string",
              "name": "appointmentDate",
              "type": "string"
            },
            {
              "internalType": "string",
              "name": "condition",
              "type": "string"
            },
            {
              "internalType": "string",
              "name": "message",
              "type": "string"
            },
            {
              "internalType": "bool",
              "name": "isOpen",
              "type": "bool"
            }
          ],
          "internalType": "struct Healthcare.Appointment[]",
          "name": "",
          "type": "tuple[]"
        }
      ],
      "stateMutability": "view",
      "type": "function"
    },
    {
      "inputs": [
        {
          "internalType": "uint256",
          "name": "_doctorId",
          "type": "uint256"
        }
      ],
      "name": "GET_DOCTOR_DETAILS",
      "outputs": [
        {
          "components": [
            {
              "internalType": "uint256",
              "name": "id",
              "type": "uint256"
            },
            {
              "internalType": "string",
              "name": "IPFS_URL",
              "type": "string"
            },
            {
              "internalType": "address",
              "name": "accountAddress",
              "type": "address"
            },
            {
              "internalType": "uint256",
              "name": "appointmentCount",
              "type": "uint256"
            },
            {
              "internalType": "uint256",
              "name": "successfulTreatmentCount",
              "type": "uint256"
            },
            {
              "internalType": "bool",
              "name": "isApproved",
              "type": "bool"
            }
          ],
          "internalType": "struct Healthcare.Doctor",
          "name": "",
          "type": "tuple"
        }
      ],
      "stateMutability": "view",
      "type": "function"
    },
    {
      "inputs": [
        {
          "internalType": "address",
          "name": "_doctorAddress",
          "type": "address"
        }
      ],
      "name": "GET_DOCTOR_ID",
      "outputs": [
        {
          "internalType": "uint256",
          "name": "",
          "type": "uint256"
        }
      ],
      "stateMutability": "view",
      "type": "function"
    },
    {
      "inputs": [
        {
          "internalType": "uint256",
          "name": "_medicineId",
          "type": "uint256"
        }
      ],
      "name": "GET_MEDICINE_DETAILS",
      "outputs": [
        {
          "components": [
            {
              "internalType": "uint256",
              "name": "id",
              "type": "uint256"
            },
            {
              "internalType": "string",
              "name": "IPFS_URL",
              "type": "string"
            },
            {
              "internalType": "uint256",
              "name": "price",
              "type": "uint256"
            },
            {
              "internalType": "uint256",
              "name": "quantity",
              "type": "uint256"
            },
            {
              "internalType": "uint256",
              "name": "discount",
              "type": "uint256"
            },
            {
              "internalType": "string",
              "name": "currentLocation",
              "type": "string"
            },
            {
              "internalType": "bool",
              "name": "active",
              "type": "bool"
            }
          ],
          "internalType": "struct Healthcare.Medicine",
          "name": "",
          "type": "tuple"
        }
      ],
      "stateMutability": "view",
      "type": "function"
    },
    {
      "inputs": [],
      "name": "GET_MOST_POPULAR_DOCTOR",
      "outputs": [
        {
          "components": [
            {
              "internalType": "uint256",
              "name": "id",
              "type": "uint256"
            },
            {
              "internalType": "string",
              "name": "IPFS_URL",
              "type": "string"
            },
            {
              "internalType": "address",
              "name": "accountAddress",
              "type": "address"
            },
            {
              "internalType": "uint256",
              "name": "appointmentCount",
              "type": "uint256"
            },
            {
              "internalType": "uint256",
              "name": "successfulTreatmentCount",
              "type": "uint256"
            },
            {
              "internalType": "bool",
              "name": "isApproved",
              "type": "bool"
            }
          ],
          "internalType": "struct Healthcare.Doctor",
          "name": "",
          "type": "tuple"
        }
      ],
      "stateMutability": "view",
      "type": "function"
    },
    {
      "inputs": [
        {
          "internalType": "address",
          "name": "_address",
          "type": "address"
        }
      ],
      "name": "GET_MY_FRIEND_LIST",
      "outputs": [
        {
          "components": [
            {
              "internalType": "address",
              "name": "pubkey",
              "type": "address"
            },
            {
              "internalType": "string",
              "name": "name",
              "type": "string"
            }
          ],
          "internalType": "struct Healthcare.friend[]",
          "name": "",
          "type": "tuple[]"
        }
      ],
      "stateMutability": "view",
      "type": "function"
    },
    {
      "inputs": [
        {
          "internalType": "address",
          "name": "_userAddress",
          "type": "address"
        }
      ],
      "name": "GET_NOTIFICATIONS",
      "outputs": [
        {
          "components": [
            {
              "internalType": "uint256",
              "name": "id",
              "type": "uint256"
            },
            {
              "internalType": "address",
              "name": "userAddress",
              "type": "address"
            },
            {
              "internalType": "string",
              "name": "message",
              "type": "string"
            },
            {
              "internalType": "uint256",
              "name": "timestamp",
              "type": "uint256"
            },
            {
              "internalType": "string",
              "name": "categoryType",
              "type": "string"
            }
          ],
          "internalType": "struct Healthcare.Notification[]",
          "name": "",
          "type": "tuple[]"
        }
      ],
      "stateMutability": "view",
      "type": "function"
    },
    {
      "inputs": [
        {
          "internalType": "uint256",
          "name": "_appointmentId",
          "type": "uint256"
        }
      ],
      "name": "GET_PATIENT_APPOINTMENT",
      "outputs": [
        {
          "components": [
            {
              "internalType": "uint256",
              "name": "id",
              "type": "uint256"
            },
            {
              "internalType": "uint256",
              "name": "patientId",
              "type": "uint256"
            },
            {
              "internalType": "uint256",
              "name": "doctorId",
              "type": "uint256"
            },
            {
              "internalType": "uint256",
              "name": "date",
              "type": "uint256"
            },
            {
              "internalType": "string",
              "name": "from",
              "type": "string"
            },
            {
              "internalType": "string",
              "name": "to",
              "type": "string"
            },
            {
              "internalType": "string",
              "name": "appointmentDate",
              "type": "string"
            },
            {
              "internalType": "string",
              "name": "condition",
              "type": "string"
            },
            {
              "internalType": "string",
              "name": "message",
              "type": "string"
            },
            {
              "internalType": "bool",
              "name": "isOpen",
              "type": "bool"
            }
          ],
          "internalType": "struct Healthcare.Appointment",
          "name": "",
          "type": "tuple"
        }
      ],
      "stateMutability": "view",
      "type": "function"
    },
    {
      "inputs": [
        {
          "internalType": "uint256",
          "name": "_patientId",
          "type": "uint256"
        }
      ],
      "name": "GET_PATIENT_APPOINTMENT_HISTORYS",
      "outputs": [
        {
          "components": [
            {
              "internalType": "uint256",
              "name": "id",
              "type": "uint256"
            },
            {
              "internalType": "uint256",
              "name": "patientId",
              "type": "uint256"
            },
            {
              "internalType": "uint256",
              "name": "doctorId",
              "type": "uint256"
            },
            {
              "internalType": "uint256",
              "name": "date",
              "type": "uint256"
            },
            {
              "internalType": "string",
              "name": "from",
              "type": "string"
            },
            {
              "internalType": "string",
              "name": "to",
              "type": "string"
            },
            {
              "internalType": "string",
              "name": "appointmentDate",
              "type": "string"
            },
            {
              "internalType": "string",
              "name": "condition",
              "type": "string"
            },
            {
              "internalType": "string",
              "name": "message",
              "type": "string"
            },
            {
              "internalType": "bool",
              "name": "isOpen",
              "type": "bool"
            }
          ],
          "internalType": "struct Healthcare.Appointment[]",
          "name": "",
          "type": "tuple[]"
        }
      ],
      "stateMutability": "view",
      "type": "function"
    },
    {
      "inputs": [
        {
          "internalType": "uint256",
          "name": "_patientId",
          "type": "uint256"
        }
      ],
      "name": "GET_PATIENT_DETAILS",
      "outputs": [
        {
          "components": [
            {
              "internalType": "uint256",
              "name": "id",
              "type": "uint256"
            },
            {
              "internalType": "string",
              "name": "IPFS_URL",
              "type": "string"
            },
            {
              "internalType": "string[]",
              "name": "medicalHistory",
              "type": "string[]"
            },
            {
              "internalType": "address",
              "name": "accountAddress",
              "type": "address"
            },
            {
              "internalType": "uint256[]",
              "name": "boughtMedicines",
              "type": "uint256[]"
            },
            {
              "internalType": "string[]",
              "name": "attestations",
              "type": "string[]"
            }
          ],
          "internalType": "struct Healthcare.Patient",
          "name": "",
          "type": "tuple"
        }
      ],
      "stateMutability": "view",
      "type": "function"
    },
    {
      "inputs": [
        {
          "internalType": "address",
          "name": "_patientAddress",
          "type": "address"
        }
      ],
      "name": "GET_PATIENT_ID",
      "outputs": [
        {
          "internalType": "uint256",
          "name": "",
          "type": "uint256"
        }
      ],
      "stateMutability": "view",
      "type": "function"
    },
    {
      "inputs": [
        {
          "internalType": "uint256",
          "name": "_patientId",
          "type": "uint256"
        }
      ],
      "name": "GET_PATIENT_MEDICIAL_HISTORY",
      "outputs": [
        {
          "internalType": "string[]",
          "name": "",
          "type": "string[]"
        },
        {
          "internalType": "string[]",
          "name": "",
          "type": "string[]"
        }
      ],
      "stateMutability": "view",
      "type": "function"
    },
    {
      "inputs": [
        {
          "internalType": "uint256",
          "name": "_prescriptionId",
          "type": "uint256"
        }
      ],
      "name": "GET_PRESCRIPTION_DETAILS",
      "outputs": [
        {
          "components": [
            {
              "internalType": "uint256",
              "name": "id",
              "type": "uint256"
            },
            {
              "internalType": "uint256",
              "name": "medicineId",
              "type": "uint256"
            },
            {
              "internalType": "uint256",
              "name": "patientId",
              "type": "uint256"
            },
            {
              "internalType": "uint256",
              "name": "doctorId",
              "type": "uint256"
            },
            {
              "internalType": "uint256",
              "name": "date",
              "type": "uint256"
            }
          ],
          "internalType": "struct Healthcare.Prescription",
          "name": "",
          "type": "tuple"
        }
      ],
      "stateMutability": "view",
      "type": "function"
    },
    {
      "inputs": [
        {
          "internalType": "address",
          "name": "friend_key",
          "type": "address"
        },
        {
          "internalType": "address",
          "name": "_myAddress",
          "type": "address"
        }
      ],
      "name": "GET_READ_MESSAGE",
      "outputs": [
        {
          "components": [
            {
              "internalType": "address",
              "name": "sender",
              "type": "address"
            },
            {
              "internalType": "uint256",
              "name": "timestamp",
              "type": "uint256"
            },
            {
              "internalType": "string",
              "name": "msg",
              "type": "string"
            }
          ],
          "internalType": "struct Healthcare.message[]",
          "name": "",
          "type": "tuple[]"
        }
      ],
      "stateMutability": "view",
      "type": "function"
    },
    {
      "inputs": [
        {
          "internalType": "address",
          "name": "pubkey",
          "type": "address"
        }
      ],
      "name": "GET_USERNAME_TYPE",
      "outputs": [
        {
          "components": [
            {
              "internalType": "string",
              "name": "name",
              "type": "string"
            },
            {
              "internalType": "string",
              "name": "userType",
              "type": "string"
            },
            {
              "components": [
                {
                  "internalType": "address",
                  "name": "pubkey",
                  "type": "address"
                },
                {
                  "internalType": "string",
                  "name": "name",
                  "type": "string"
                }
              ],
              "internalType": "struct Healthcare.friend[]",
              "name": "friendList",
              "type": "tuple[]"
            }
          ],
          "internalType": "struct Healthcare.User",
          "name": "",
          "type": "tuple"
        }
      ],
      "stateMutability": "view",
      "type": "function"
    },
    {
      "inputs": [
        {
          "internalType": "uint256",
          "name": "_medicineId",
          "type": "uint256"
        },
        {
          "internalType": "uint256",
          "name": "_patientId",
          "type": "uint256"
        }
      ],
      "name": "PRESCRIBE_MEDICINE",
      "outputs": [],
      "stateMutability": "nonpayable",
      "type": "function"
    },
    {
      "inputs": [
        {
          "internalType": "address payable",
          "name": "_newAddress",
          "type": "address"
        }
      ],
      "name": "UPDATE_ADMIN_ADDRESS",
      "outputs": [],
      "stateMutability": "nonpayable",
      "type": "function"
    },
    {
      "inputs": [
        {
          "internalType": "uint256",
          "name": "_newFee",
          "type": "uint256"
        }
      ],
      "name": "UPDATE_APPOINTMENT_FEE",
      "outputs": [],
      "stateMutability": "nonpayable",
      "type": "function"
    },
    {
      "inputs": [
        {
          "internalType": "uint256",
          "name": "_medicineId",
          "type": "uint256"
        }
      ],
      "name": "UPDATE_MEDICINE_ACTIVE",
      "outputs": [],
      "stateMutability": "nonpayable",
      "type": "function"
    },
    {
      "inputs": [
        {
          "internalType": "uint256",
          "name": "_medicineId",
          "type": "uint256"
        },
        {
          "internalType": "uint256",
          "name": "_discount",
          "type": "uint256"
        }
      ],
      "name": "UPDATE_MEDICINE_DISCOUNT",
      "outputs": [],
      "stateMutability": "nonpayable",
      "type": "function"
    },
    {
      "inputs": [
        {
          "internalType": "uint256",
          "name": "_medicineId",
          "type": "uint256"
        },
        {
          "internalType": "string",
          "name": "_newLocation",
          "type": "string"
        }
      ],
      "name": "UPDATE_MEDICINE_LOCATION",
      "outputs": [],
      "stateMutability": "nonpayable",
      "type": "function"
    },
    {
      "inputs": [
        {
          "internalType": "uint256",
          "name": "_medicineId",
          "type": "uint256"
        },
        {
          "internalType": "uint256",
          "name": "_price",
          "type": "uint256"
        }
      ],
      "name": "UPDATE_MEDICINE_PRICE",
      "outputs": [],
      "stateMutability": "nonpayable",
      "type": "function"
    },
    {
      "inputs": [
        {
          "internalType": "uint256",
          "name": "_medicineId",
          "type": "uint256"
        },
        {
          "internalType": "uint256",
          "name": "_quantity",
          "type": "uint256"
        }
      ],
      "name": "UPDATE_MEDICINE_QUANTITY",
      "outputs": [],
      "stateMutability": "nonpayable",
      "type": "function"
    },
    {
      "inputs": [
        {
          "internalType": "uint256",
          "name": "_patientId",
          "type": "uint256"
        },
        {
          "internalType": "string",
          "name": "_newMedicalHistory",
          "type": "string"
        },
        {
          "internalType": "string",
          "name": "_attestationId",
          "type": "string"
        }
      ],
      "name": "UPDATE_PATIENT_MEDICAL_HISTORY",
      "outputs": [],
      "stateMutability": "nonpayable",
      "type": "function"
    },
    {
      "inputs": [
        {
          "internalType": "uint256",
          "name": "_newFee",
          "type": "uint256"
        }
      ],
      "name": "UPDATE_REGISTRATION_FEE",
      "outputs": [],
      "stateMutability": "nonpayable",
      "type": "function"
    },
    {
      "inputs": [
        {
          "internalType": "uint256",
          "name": "_newFee",
          "type": "uint256"
        }
      ],
      "name": "UPDATE_REGISTRATION_PATIENT_FEE",
      "outputs": [],
      "stateMutability": "nonpayable",
      "type": "function"
    },
    {
      "inputs": [
        {
          "internalType": "address",
          "name": "friend_key",
          "type": "address"
        },
        {
          "internalType": "address",
          "name": "_myAddress",
          "type": "address"
        },
        {
          "internalType": "string",
          "name": "_msg",
          "type": "string"
        }
      ],
      "name": "_SEND_MESSAGE",
      "outputs": [],
      "stateMutability": "nonpayable",
      "type": "function"
    },
    {
      "inputs": [],
      "name": "admin",
      "outputs": [
        {
          "internalType": "address payable",
          "name": "",
          "type": "address"
        }
      ],
      "stateMutability": "view",
      "type": "function"
    },
    {
      "inputs": [],
      "name": "appointmentCount",
      "outputs": [
        {
          "internalType": "uint256",
          "name": "",
          "type": "uint256"
        }
      ],
      "stateMutability": "view",
      "type": "function"
    },
    {
      "inputs": [],
      "name": "appointmentFee",
      "outputs": [
        {
          "internalType": "uint256",
          "name": "",
          "type": "uint256"
        }
      ],
      "stateMutability": "view",
      "type": "function"
    },
    {
      "inputs": [
        {
          "internalType": "uint256",
          "name": "",
          "type": "uint256"
        }
      ],
      "name": "appointments",
      "outputs": [
        {
          "internalType": "uint256",
          "name": "id",
          "type": "uint256"
        },
        {
          "internalType": "uint256",
          "name": "patientId",
          "type": "uint256"
        },
        {
          "internalType": "uint256",
          "name": "doctorId",
          "type": "uint256"
        },
        {
          "internalType": "uint256",
          "name": "date",
          "type": "uint256"
        },
        {
          "internalType": "string",
          "name": "from",
          "type": "string"
        },
        {
          "internalType": "string",
          "name": "to",
          "type": "string"
        },
        {
          "internalType": "string",
          "name": "appointmentDate",
          "type": "string"
        },
        {
          "internalType": "string",
          "name": "condition",
          "type": "string"
        },
        {
          "internalType": "string",
          "name": "message",
          "type": "string"
        },
        {
          "internalType": "bool",
          "name": "isOpen",
          "type": "bool"
        }
      ],
      "stateMutability": "view",
      "type": "function"
    },
    {
      "inputs": [],
      "name": "doctorCount",
      "outputs": [
        {
          "internalType": "uint256",
          "name": "",
          "type": "uint256"
        }
      ],
      "stateMutability": "view",
      "type": "function"
    },
    {
      "inputs": [
        {
          "internalType": "uint256",
          "name": "",
          "type": "uint256"
        }
      ],
      "name": "doctors",
      "outputs": [
        {
          "internalType": "uint256",
          "name": "id",
          "type": "uint256"
        },
        {
          "internalType": "string",
          "name": "IPFS_URL",
          "type": "string"
        },
        {
          "internalType": "address",
          "name": "accountAddress",
          "type": "address"
        },
        {
          "internalType": "uint256",
          "name": "appointmentCount",
          "type": "uint256"
        },
        {
          "internalType": "uint256",
          "name": "successfulTreatmentCount",
          "type": "uint256"
        },
        {
          "internalType": "bool",
          "name": "isApproved",
          "type": "bool"
        }
      ],
      "stateMutability": "view",
      "type": "function"
    },
    {
      "inputs": [],
      "name": "medicineCount",
      "outputs": [
        {
          "internalType": "uint256",
          "name": "",
          "type": "uint256"
        }
      ],
      "stateMutability": "view",
      "type": "function"
    },
    {
      "inputs": [
        {
          "internalType": "uint256",
          "name": "",
          "type": "uint256"
        }
      ],
      "name": "medicines",
      "outputs": [
        {
          "internalType": "uint256",
          "name": "id",
          "type": "uint256"
        },
        {
          "internalType": "string",
          "name": "IPFS_URL",
          "type": "string"
        },
        {
          "internalType": "uint256",
          "name": "price",
          "type": "uint256"
        },
        {
          "internalType": "uint256",
          "name": "quantity",
          "type": "uint256"
        },
        {
          "internalType": "uint256",
          "name": "discount",
          "type": "uint256"
        },
        {
          "internalType": "string",
          "name": "currentLocation",
          "type": "string"
        },
        {
          "internalType": "bool",
          "name": "active",
          "type": "bool"
        }
      ],
      "stateMutability": "view",
      "type": "function"
    },
    {
      "inputs": [],
      "name": "patientCount",
      "outputs": [
        {
          "internalType": "uint256",
          "name": "",
          "type": "uint256"
        }
      ],
      "stateMutability": "view",
      "type": "function"
    },
    {
      "inputs": [
        {
          "internalType": "uint256",
          "name": "",
          "type": "uint256"
        },
        {
          "internalType": "uint256",
          "name": "",
          "type": "uint256"
        }
      ],
      "name": "patientOrders",
      "outputs": [
        {
          "internalType": "uint256",
          "name": "medicineId",
          "type": "uint256"
        },
        {
          "internalType": "uint256",
          "name": "price",
          "type": "uint256"
        },
        {
          "internalType": "uint256",
          "name": "payAmount",
          "type": "uint256"
        },
        {
          "internalType": "uint256",
          "name": "quantity",
          "type": "uint256"
        },
        {
          "internalType": "uint256",
          "name": "patientId",
          "type": "uint256"
        },
        {
          "internalType": "uint256",
          "name": "date",
          "type": "uint256"
        }
      ],
      "stateMutability": "view",
      "type": "function"
    },
    {
      "inputs": [
        {
          "internalType": "uint256",
          "name": "",
          "type": "uint256"
        }
      ],
      "name": "patients",
      "outputs": [
        {
          "internalType": "uint256",
          "name": "id",
          "type": "uint256"
        },
        {
          "internalType": "string",
          "name": "IPFS_URL",
          "type": "string"
        },
        {
          "internalType": "address",
          "name": "accountAddress",
          "type": "address"
        }
      ],
      "stateMutability": "view",
      "type": "function"
    },
    {
      "inputs": [],
      "name": "prescriptionCount",
      "outputs": [
        {
          "internalType": "uint256",
          "name": "",
          "type": "uint256"
        }
      ],
      "stateMutability": "view",
      "type": "function"
    },
    {
      "inputs": [
        {
          "internalType": "uint256",
          "name": "",
          "type": "uint256"
        }
      ],
      "name": "prescriptions",
      "outputs": [
        {
          "internalType": "uint256",
          "name": "id",
          "type": "uint256"
        },
        {
          "internalType": "uint256",
          "name": "medicineId",
          "type": "uint256"
        },
        {
          "internalType": "uint256",
          "name": "patientId",
          "type": "uint256"
        },
        {
          "internalType": "uint256",
          "name": "doctorId",
          "type": "uint256"
        },
        {
          "internalType": "uint256",
          "name": "date",
          "type": "uint256"
        }
      ],
      "stateMutability": "view",
      "type": "function"
    },
    {
      "inputs": [
        {
          "internalType": "address",
          "name": "",
          "type": "address"
        }
      ],
      "name": "registeredDoctors",
      "outputs": [
        {
          "internalType": "bool",
          "name": "",
          "type": "bool"
        }
      ],
      "stateMutability": "view",
      "type": "function"
    },
    {
      "inputs": [
        {
          "internalType": "address",
          "name": "",
          "type": "address"
        }
      ],
      "name": "registeredPatients",
      "outputs": [
        {
          "internalType": "bool",
          "name": "",
          "type": "bool"
        }
      ],
      "stateMutability": "view",
      "type": "function"
    },
    {
      "inputs": [],
      "name": "registrationDoctorFee",
      "outputs": [
        {
          "internalType": "uint256",
          "name": "",
          "type": "uint256"
        }
      ],
      "stateMutability": "view",
      "type": "function"
    },
    {
      "inputs": [],
      "name": "registrationPatientFee",
      "outputs": [
        {
          "internalType": "uint256",
          "name": "",
          "type": "uint256"
        }
      ],
      "stateMutability": "view",
      "type": "function"
    }
  ],
  "bytecode": "0x60808060405234610043576608e1bc9bf04000601281905565e35fa931a000601355601455601180546001600160a01b031916331790556159d99081620000498239f35b600080fdfe6080604052600436101561001257600080fd5b60003560e01c806302cce77014614197578063046a07ed1461411157806304c0adb7146140ee578063082ed547146140c357806312dc901314613fca5780631b82207e14613f9d5780632a42e74c14613e375780632c486bd514613d8357806331dfc91b14613d1b57806337a92da714613afe57806339d519a914613a4d5780633f308cd214613a0e5780634c16b8ad1461382f5780634dafd49014613811578063540a6614146137f3578063559160b8146136795780635597958e146134d157806356baa64e146133ad578063636d36271461335c5780636efb1b84146132d357806372de44011461316057806374cdd534146130e7578063770d954d1461308057806378522bc4146130625780637c0b501a14612f53578063828b10da14612e335780638366304b14612a86578063842f8dd01461292b57806384e7aa2e146127b05780638c9e245d1461271a57806393119a83146126ce5780639cdaaad81461268f5780639fea8c261461252a578063a0303c411461250c578063a48f87d01461249a578063a72c162314612387578063b039ece914612255578063b27b24f81461213d578063b3e0c7101461208a578063b65584981461206c578063b884db7514611d88578063bbece2bb14611cc7578063c0a5999a14611bd1578063c85e766d14611b34578063d0da230614611a0c578063d174ea411461197d578063d308719c14611363578063dabf826a14611345578063dd1bf90214611191578063e40b850e14611173578063e92f0a68146110d3578063ea51cd6c14610fca578063ebd557d914610baa578063ed74e84814610951578063eebc3fb214610933578063f27e44cc14610898578063f28136a914610811578063f851a440146107e8578063fb5333b7146106e5578063fd9510d5146104b0578063fe60efa1146104155763ff09a64e146102c657600080fd5b34610410576020366003190112610410576102df614233565b6060604080516102ee81614321565b828152826020820152015261030a610305826152c4565b615589565b60018060a01b03166000526001806020526040600020906040519061032e82614321565b6103378361435d565b825261039261035a600261034c84870161435d565b9560208601968752016155ce565b936040840194855261037f604051946020865251606060208701526080860190614403565b9051848203601f19016040860152614403565b925192601f19838203016060840152835180825260208201916020808360051b8301019601926000915b8383106103c95786880387f35b90919293946020806103ff839a601f198682030187526040838b5160018060a01b03815116845201519181858201520190614403565b9997019594919091019201906103bc565b600080fd5b346104105760203660031901126104105761042e615190565b5060043560005260066020526104ac604060002060ff600560405192610453846142d0565b805484526104636001820161435d565b602085015260018060a01b0360028201541660408501526003810154606085015260048101546080850152015416151560a08201526040519182916020835260208301906146c0565b0390f35b3461041057602080600319360112610410576004359033600052600a81526104df60ff60406000205416614d29565b6104ed601054831115614e2d565b816000526009815260026040600020015461050733615212565b0361068357816106819260005260098252600960406000200160ff19815416905561053133615212565b60005260068252600460406000200161054a81546149a7565b90556105ab60405161055b81614321565b602f81527f596f752068617665207375636365737366756c6c7920636f6d706c6574656420848201526e1d1a1948185c1c1bda5b9d1b595b9d608a1b60408201526105a4614cc3565b9033614afd565b600052600981526001604060002001546000526007815260018060a01b0361062d81600360406000200154166040516105e381614321565b602a81527f596f7572204170706f696e746d656e74206973207375636365737366756c6c7985820152690818dbdb5c1b195d195960b21b6040820152610627614cc3565b91614afd565b60115416907f446f63746f7220636f6d706c65746564206170706f696e746d656e74207375636040519161066083614321565b60298352820152686365737366756c6c7960b81b6040820152610627614cc3565b005b6084906040519062461bcd60e51b82526004820152603560248201527f4f6e6c79207468652061737369676e656420646f63746f722063616e20636f6d6044820152741c1b195d19481d1a1948185c1c1bda5b9d1b595b9d605a1b6064820152fd5b34610410576040366003190112610410576024356004356001600160401b038211610410576107397f573cca7a8cd583da809cdb83b4ea8dec06c87da579a25478cc69566672e2b58992369060040161449f565b9061074f60018060a01b03601154163314614950565b61075d600c54821115614c2b565b806000526005602052610777826005604060002001614a12565b6107c760405161078681614321565b602681527f4d65646963696e65206c6f636174696f6e2075706461746564207375636365736020820152657366756c6c7960d01b60408201526105a4614ad9565b6107e36040519283928352604060208401526040830190614403565b0390a1005b34610410576000366003190112610410576011546040516001600160a01b039091168152602090f35b3461041057602036600319011261041057601154610681906001600160a01b031661083d338214614950565b60043560125560405161084f81614321565b602e81527f596f752068617665207375636365737366756c6c79207570646174656420526560208201526d67697374726174696f6e2066656560901b6040820152610627614eee565b34610410576020366003190112610410576108b1614f0f565b50600435600052600860205260a060406000206004604051916108d383614299565b8054835260018101546020840152600281015460408401526003810154606084015201546080820152610931604051809260808091805184526020810151602085015260408101516040850152606081015160608501520151910152565bf35b34610410576000366003190112610410576020601054604051908152f35b346104105760603660031901126104105761096a614233565b610972614249565b906044356001600160401b0381116104105761099290369060040161488c565b9290916109a66109a1836152c4565b615649565b6109b2610305826152c4565b6109bc81836157b5565b15610b56576109cb818361590d565b90604051946109d986614321565b60018060a01b039384811687526109fa602096878901934285523691614459565b9360408801948552600052600286526040600020805497600160401b891015610b405760018901808355891015610b2a576002610ae896610ab495896106819c610a6c9660005260038d6000209102019451166001600160601b0360a01b855416178455516001840155519101614a12565b604051610a7881614321565b602281527f596f752068617665207375636365737366756c6c792073656e64206d657373618782015261676560f01b60408201526106276158ea565b604051610ac0816142eb565b6014815273596f752068617665206e6577206d65737361676560601b858201526106276158ea565b60115416907f6d6573736167652073656e64207375636365737366756c6c790000000000000060405191610b1b836142eb565b601983528201526106276158ea565b634e487b7160e01b600052603260045260246000fd5b634e487b7160e01b600052604160045260246000fd5b60405162461bcd60e51b815260206004820152602660248201527f596f7520617265206e6f7420667269656e64207769746820746865206769766560448201526537103ab9b2b960d11b6064820152608490fd5b610120366003190112610410576001600160401b0360443581811161041057610bd790369060040161449f565b60643582811161041057610bef90369060040161449f565b9060843583811161041057610c0890369060040161449f565b9060a43584811161041057610c2190369060040161449f565b9260c43585811161041057610c3a90369060040161449f565b9460e4356001600160a01b0381169003610410576101043590811161041057610c6790369060040161488c565b959094610c7a600e546004351115614d8d565b610c8a600d546024351115614ce5565b6024356000526006602052610ca960ff60056040600020015416614e79565b6014543403610f8557610cc1600a3490810490614ee1565b94601054610cce906149a7565b938460105560405195610ce0876142b4565b858752602087016004358152604088016024358152606089019142835260808a0193845260a08a0194855260c08a0195865260e08a019687526101008a019788526101208a019860018a526000526009602052604060002099518a555160018a0155516002890155516003880155516004870190610d5d91614a12565b51610d6b9060058701614a12565b51610d799060068601614a12565b51610d879060078501614a12565b51610d959060088401614a12565b5115159060090190610db2919060ff801983541691151516179055565b602435600052600660205260406000206003018054610dd0906149a7565b905560115460009081908190819081906001600160a01b0316600a340415610f7b575b600a340491f115610f66576000808080936024358252600660205260018060a01b03600260408420015416828215610f72575bf115610f6657610e3a91339160e435615695565b610e84604051610e49816142eb565b601a81527f596f7520686176652061206e6577206170706f696e746d656e740000000000006020820152610e7b614ebe565b9060e435614afd565b610ed9604051610e9381614321565b602b81527f596f752068617665207375636365737366756c6c7920626f6f6b656420616e2060208201526a185c1c1bda5b9d1b595b9d60aa1b60408201526105a4614ebe565b601154604051610f21916001600160a01b031690610ef6816142eb565b601681527513995dc8185c1c1bda5b9d1b595b9d08189bdbdad95960521b6020820152610627614ebe565b7f3ac6f9df28ef09d1b346be1f7d771f61872f07de8da7b88f490fe4f61b2b3e2c608060105460405190815260043560208201526024356040820152426060820152a1005b6040513d6000823e3d90fd5b506108fc610e26565b6108fc9150610df3565b60405162461bcd60e51b815260206004820152601960248201527f496e636f7272656374206170706f696e746d656e7420666565000000000000006044820152606490fd5b3461041057600036600319011261041057601054610fe781615140565b9060018060005b8383111561100457604051806104ac878261455f565b6110c76110cd9184600052600960ff60209180835260406000206040519361102b856142b4565b81548552888201549085015260028101546040850152600381015460608501526110576004820161435d565b60808501526110686005820161435d565b60a08501526110796006820161435d565b60c085015261108a6007820161435d565b60e085015261109b6008820161435d565b61010085015201541615156101208201526110b68289614f8a565b526110c18188614f8a565b506149a7565b926149a7565b91610fee565b34610410576020366003190112610410576110ec61528b565b5060043560005260056020526104ac604060002060ff60066040519261111184614306565b805484526111216001820161435d565b60208501526002810154604085015260038101546060850152600481015460808501526111506005820161435d565b60a0850152015416151560c0820152604051918291602083526020830190614811565b34610410576000366003190112610410576020601254604051908152f35b346104105760a0366003190112610410576001600160401b03600435818111610410576111c290369060040161449f565b608435918211610410576111fb7f4bd6730197eeaa6a5861ee6770b4a7ea4945e177c1b8f8e196812da34b52b62092369060040161449f565b61121060018060a01b03601154163314614950565b6112bb61121e600c546149a7565b80600c5560066040519161123183614306565b8083526112a5602084018781526040850160243581526060860160443581526080870191606435835261128960a08901948b865260c08a0197600189526000526005602052604060002099518a555160018a01614a12565b5160028801555160038701555160048601555160058501614a12565b51151591019060ff801983541691151516179055565b6113146040516112ca81614321565b602f81527f4e6577204d65646963696e6520616464656420746f206d61726b6574706c616360208201526e65207375636365737366756c6c792160881b60408201526105a4614ad9565b6107e3600c54916113376040519485948552606060208601526060850190614403565b908382036040850152614403565b34610410576000366003190112610410576020601454604051908152f35b610120366003190112610410576004356001600160401b0381116104105761138f90369060040161449f565b6024356001600160401b038111610410576113ae9036906004016148d0565b906044356001600160a01b038116900361041057606435916001600160401b0383116104105736602384011215610410578260040135926113ee846148b9565b936113fc604051958661433c565b8085526024602086019160051b8301019136831161041057602401905b82821061196d575050506084356001600160401b0381116104105761144290369060040161488c565b60a4356001600160a01b03811690036104105760c4356001600160401b0381116104105761147490369060040161488c565b909160e4356001600160401b0381116104105761149590369060040161449f565b96610104356001600160401b038111610410576114b69036906004016148d0565b906114c46013543414614c77565b6044356001600160a01b03166000908152600b602052604090205460ff16611928576114f1600e546149a7565b9081600e5560405191611503836142d0565b80835260208301938a855260408401928a845260018060a01b03604435166060860152608085015260a0840152600052600760205261154f604060002093835185555160018501614a12565b51805190600160401b8211610b405760028401548260028601558083106118a9575b506020016002840160005260206000206000915b83831061188c57505050506003820160018060a01b036060830151166001600160601b0360a01b82541617905560808101518051906001600160401b038211610b4057600160401b8211610b405760206004850191825484845580851061186f575b500190600052602060002060005b83811061185b575050505060a0015190815191600160401b8311610b405760058201548360058401558084106117dc575b50602060059101910160005260206000206000915b8383106117bf57505050506044356001600160a01b039081166000908152600b60205260408120805460ff19166001179055601154909182918291829182911634156117b5575b3491f115610f66577fc66c47c46a9613cb876ef0205ca8c4597eb05703969f8458f4a762107e865dc2966116c9946116bd9260443591615306565b6044359160a435615695565b6117286040516116d881614321565b602c81527f596f752068617665207375636365737366756c6c7920636f6d706c657465642060208201526b3932b3b4b9ba3930ba34b7b760a11b604082015261171f614ebe565b90604435614afd565b601154604051611784916001600160a01b03169061174581614321565b602481527f4e65772050617469656e74206973207265676973746f72207375636365737366602082015263756c6c7960e01b6040820152610627614ebe565b6107e3600e54916117a76040519485948552606060208601526060850190614403565b9083820360408501526145f5565b6108fc9150611682565b60016020826117d083945186614a12565b0192019201919061163b565b600583016000526020600020908482015b81830181106117fd575050611626565b8061180a6001925461425f565b80611817575b50016117ed565b601f908181118414611830575050600081555b8e611810565b8361184c92846000526020600020920160051c820191016149b6565b6000602081208183555561182a565b6001906020845194019381840155016115f5565b6118869084600052858460002091820191016149b6565b8d6115e7565b600160208261189d83945186614a12565b01920192019190611585565b600285016000526020600020908382015b81830181106118ca575050611571565b806118d76001925461425f565b806118e4575b50016118ba565b601f9081811184146118fd575050600081555b8f6118dd565b8361191992846000526020600020920160051c820191016149b6565b600060208120818355556118f7565b60405162461bcd60e51b815260206004820152601d60248201527f50617469656e7420697320616c726561647920726567697374657265640000006044820152606490fd5b8135815260209182019101611419565b3461041057602036600319011261041057601154610681906001600160a01b03166119a9338214614950565b6004356013556040516119bb81614321565b603681527f596f752068617665207375636365737366756c6c7920757064617465642050616020820152757469656e7420526567697374726174696f6e2066656560501b6040820152610627614eee565b3461041057600036600319011261041057600d546001906000825b82811115611af75750611a39906151c2565b91600090805b83811115611a5557604051806104ac8782614711565b8060005260206006815260ff600581816040600020015416611a83575b505050611a7e906149a7565b611a3f565b91611a7e939591611aee93604060002060405193611aa0856142d0565b81548552611aaf89830161435d565b9085015260028101546001600160a01b031660408501526003810154606085015260048101546080850152015416151560a08201526110b68289614f8a565b92908680611a72565b80600052600660205260ff60056040600020015416611b1f575b611b1a906149a7565b611a27565b90611b2c611b1a916149a7565b919050611b11565b3461041057602036600319011261041057600435600052600560205260406000208054611b636001830161435d565b91611bc56002820154600383015492600481015460ff6006611b876005850161435d565b9301541694611ba8604051988998895260e060208a015260e0890190614403565b9360408801526060870152608086015284820360a0860152614403565b90151560c08301520390f35b34610410576020366003190112610410577f954090adef24b59354b88966afb6b169cf1790275cc1c22d9d599cfa745041a5600435611c1b60018060a01b03601154163314614950565b611c29600c54821115614c2b565b6000818152600560205260409020600601805460ff818116151660ff19909116179055611c9a604051611c5b81614321565b602481527f4d65646963696e65207374617475732075706461746564207375636365737366602082015263756c6c7960e01b60408201526105a4614ad9565b60008181526005602090815260409182902060060154825193845260ff16151590830152819081016107e3565b34610410577f611a96f8a84b78b34d3917accd31d6e94ffc712cdd95a8ce7b8e2f9c5e093ae96040611cf836614443565b611d0d60018060a01b03601154163314614950565b611d1b600c54831115614c2b565b816000526005602052806004846000200155611d7b8351611d3b81614321565b602681527f4d65646963696e6520646973636f756e742075706461746564207375636365736020820152657366756c6c7960d01b858201526105a4614ad9565b82519182526020820152a1005b6080366003190112610410576001600160401b0360043581811161041057611db490369060040161449f565b611dbc614249565b60443583811161041057611dd490369060040161488c565b9060643585811161041057611ded90369060040161449f565b91611dfb6012543414614c77565b60018060a01b03928385169283600052602093600a855260ff6040600020541661202757611ec3611e2d600d546149a7565b80600d55600560405191611e40836142d0565b808352888084018d815260408501878152611e88606087019260008452600660808901956000875260a08a019760008952600052526040600020975188555160018801614a12565b8c600287019151166001600160601b0360a01b82541617905551600385015551600484015551151591019060ff801983541691151516179055565b600052600a84526040600020600160ff19825416179055600080808088601154168190341561201d575b3491f115610f6657611f00928691615306565b60405191608083019583871090871117610b4057611fb061200a937f8c4e93915e8e9956f3984eef613c813c83672180f22083646e395379663dd76997604052604981527f596f752068617665207375636365737366756c6c7920636f6d706c6574656420848201527f74686520726567697374726174696f6e2c206e6f7720776174696e6720666f7260408201526808185c1c1c9bdd985b60ba1b6060820152611fa9614cc3565b9086614afd565b60115416907f4e657720646f63746f72206973207265676973746f722c206e6f77207761746960405191611fe383614321565b602f83528201526e1b99c8199bdc88185c1c1c9bdd985b608a1b6040820152610627614cc3565b6107e3600d5491604051938493846147e3565b6108fc9150611eed565b60405162461bcd60e51b815260048101869052601c60248201527f446f63746f7220697320616c72656164792072656769737465726564000000006044820152606490fd5b34610410576000366003190112610410576020600f54604051908152f35b3461041057602080600319360112610410576001600160a01b0390816120ae614233565b1660005260018082526120c760026040600020016155ce565b926040519280840190808552855180925260408501928160408460051b8801019701936000915b8483106120fb5787890388f35b909192939495848061212b839b603f198c82030187526040838c5188815116845201519181858201520190614403565b9a9801969594919091019201906120ee565b3461041057600036600319011261041057612156615190565b5061215f615190565b600090600180600d54915b8281111561218857604051602080825281906104ac908201876146c0565b806000526006602081815260038060406000200154600460406000200154810180911161223f578881116121c9575b505050506121c4906149a7565b61216a565b60ff929398506121c49497509060059198886000528452604060002090604051946121f3866142d0565b8254865261220288840161435d565b9086015260028201546001600160a01b03166040860152810154606085015260048101546080850152015416151560a082015293908680806121b7565b634e487b7160e01b600052601160045260246000fd5b346104105760403660031901126104105761227e612271614233565b612279614249565b61590d565b6000526002602081815260406000208054612298816148b9565b936122a6604051958661433c565b81855260009283528383208486019391845b84841061233e57604080518881528951818a01819052600092600582901b83018101918a918c9085015b8287106122ef5785850386f35b90919293828061232e600193603f198a820301865260408951868060a01b03815116835284810151858401520151906060908160408201520190614403565b96019201960195929190926122e2565b60038760019260409a999a5161235381614321565b848060a01b038754168152848701548382015261237186880161435d565b60408201528152019301930192919695966122b8565b34610410576020366003190112610410576004356123a9600e54821115614d8d565b600081815260076020526040902060030154336001600160a01b039182161490811561248c575b501561242857600052600760205261241a60026040600020016104ac612406612400600560406000200193614fd0565b92614fd0565b6040519384936040855260408501906145f5565b9083820360208501526145f5565b60405162461bcd60e51b815260206004820152603660248201527f4f6e6c79207468652070617469656e74206f722061646d696e2063616e207669604482015275657720746865206d65646963616c20686973746f727960501b6064820152608490fd5b9050601154163314826123d0565b34610410576124a836614443565b906000526004602052604060002080548210156104105760c0916124cb91614870565b5080549060018101549060028101546003820154906005600484015493015493604051958652602086015260408501526060840152608083015260a0820152f35b34610410576000366003190112610410576020600e54604051908152f35b3461041057600036600319011261041057600c54612547816148b9565b612554604051918261433c565b818152601f19612563836148b9565b0160005b818110612678575060019290508260005b828211156125e3578385604051906020808301818452845180915260408401918060408360051b8701019601926000905b8382106125b65786880387f35b909192939483806125d2839a603f198b82030186528951614811565b9997019594939190910191016125a9565b61266c61267291836000528660ff6006600561264860209180835260406000209261261f6040519761261489614306565b85548952850161435d565b90870152600283015460408701526003830154606087015260048301546080870152820161435d565b60a0850152015416151560c08201526126618288614f8a565b526110c18187614f8a565b916149a7565b90612578565b60209061268361528b565b82828601015201612567565b34610410576020366003190112610410576001600160a01b036126b0614233565b16600052600b602052602060ff604060002054166040519015158152f35b34610410576020366003190112610410576004356000526007602052604060002080546104ac6127006001840161435d565b92600360018060a01b0391015416604051938493846147e3565b3461041057600036600319011261041057600f5461273781614f3a565b9060018060005b8383111561275457604051806104ac8782614773565b6110c76127aa9184600052602060088152600460406000206040519261277984614299565b8154845287820154908401526002810154604084015260038101546060840152015460808201526110b68289614f8a565b9161273e565b3461041057602080600319360112610410576004356127cd6150f5565b506127dc601054821115614e2d565b80600052600982526001604060002001546127f633615074565b148015612917575b156128b7576000526009815260406000209060ff600960405193612821856142b4565b80548552600181015484860152600281015460408601526003810154606086015261284e6004820161435d565b608086015261285f6005820161435d565b60a08601526128706006820161435d565b60c08601526128816007820161435d565b60e08601526128926008820161435d565b61010086015201541615156101208301526104ac6040519282849384528301906144bd565b60405162461bcd60e51b815260048101839052603260248201527f4f6e6c79207468652070617469656e74206f722061646d696e2063616e207669604482015271195dc81d1a1948185c1c1bda5b9d1b595b9d60721b6064820152608490fd5b506011546001600160a01b031633146127fe565b3461041057600036600319011261041057600e54612948816148b9565b612955604051918261433c565b818152601f19612964836148b9565b0160005b818110612a6f575060019290508260005b828211156129e4578385604051906020808301818452845180915260408401918060408360051b8701019601926000905b8382106129b75786880387f35b909192939483806129d3839a603f198b82030186528951614651565b9997019594939190910191016129aa565b61266c612a699183600052602060078152612a5a6005604060002060405193612a0c856142d0565b81548552612a1b8c830161435d565b90850152612a2b60028201614fd0565b604085015260038101546001600160a01b03166060850152612a4f60048201615025565b608085015201614fd0565b60a08201526126618288614f8a565b90612979565b602090612a7a614f9e565b82828601015201612968565b6060366003190112610410576004356024803590604435612aab600e54851115614d8d565b612ab9600c54841115614c2b565b836000526020916007835260018060a01b039182600360406000200154163303612ddf578460005260059081855260ff6006604060002001541615612da257856000528185528060036040600020015410612d5e57856000528185526002604060002001549080820291808304821490151715612d4957866000528286526003604060002001612b4a828254614ee1565b905587600052600786526004604060002001908154600160401b9283821015612d345781612b7e9160018c94018155614dd2565b819291549060031b600019811b9283911b16911916179055886000526004875260406000209288600052848852600260406000200154604051612bc0816142d0565b8a8152898101918252604081019283526060810193845260808101948c865260a0820196428852805491821015612d1f5790612c0191600182018155614870565b989098612d0b577f1d62f96054391d98915909b52fc6b2182af4ce3748f5ddd6c0047dd725a969df60408e8e8e612d008f8f8f8f8f8f8f8f8f51875551600187015551600286015551600385015551600484015551910155612ca58651612c6781614321565b602581527f596f752068617665207375636365737366756c6c7920626f75676874206d656485820152646963696e6560d81b888201526105a4614ebe565b601154168551612cb481614321565b603381527f5472616e73616374696f6e20636f6d706c657465642c206d61646963696e65208482015272626f75676874207375636365737366756c6c7960681b87820152610627614ebe565b8351928352820152a1005b634e487b7160e01b60005260006004526000fd5b89634e487b7160e01b60005260416004526000fd5b86634e487b7160e01b60005260416004526000fd5b83634e487b7160e01b60005260116004526000fd5b60405162461bcd60e51b815260048101869052601c818501527f4e6f7420656e6f756768206d65646963696e6520696e2073746f636b000000006044820152606490fd5b60405162461bcd60e51b815260048101869052601681850152754d65646963696e65206973206e6f742061637469766560501b6044820152606490fd5b60405162461bcd60e51b8152600481018590526027818401527f4f6e6c79207468652070617469656e742063616e20627579207468656972206d60448201526665646963696e6560c81b6064820152608490fd5b3461041057600036600319011261041057600054612e50816148b9565b90612e5e604051928361433c565b8082526000808052602091828401917f290decd9548b62a8d60345a988386fc84ba6bc95484008f6362f93160ef3e563835b838310612f135750505050604051918083019381845251809452604083019360408160051b85010192916000955b828710612ecb5785850386f35b909192938280600192603f1989820301855287519082612ef48351604084526040840190614403565b9281878060a01b03910151169101529601920196019592919092612ebe565b600286600192604099989951612f28816142eb565b612f318661435d565b8152848060a01b03858701541683820152815201920192019190959495612e90565b346104105760208060031936011261041057600f54600435916001906000825b848111156130275750612f8590614f3a565b93600091835b85811115612fa157604051806104ac8982614773565b8060005260088252600283816040600020015414612fc9575b50612fc4906149a7565b612f8b565b612fc49194613020916004604060002060405192612fe684614299565b815484528a8201548885015281015460408401526003810154606084015201546080820152613015828b614f8a565b526110c1818a614f8a565b9390612fba565b8060005260088352856002604060002001541461304d575b613048906149a7565b612f73565b9061305a613048916149a7565b91905061303f565b34610410576000366003190112610410576020600d54604051908152f35b3461041057600036600319011261041057600d5461309d816151c2565b9060018060005b838311156130ba57604051806104ac8782614711565b6110c76130e1918460005260206006815260ff6005604060002060405193611aa0856142d0565b916130a4565b3461041057602036600319011261041057613100614f9e565b5060043560005260076020526104ac6040600020613147600560405192613126846142d0565b805484526131366001820161435d565b6020850152612a2b60028201614fd0565b60a0820152604051918291602083526020830190614651565b346104105760208060031936011261041057600435613183600d54821115614ce5565b6000906001928392601054935b8481111561329857506131a290615140565b93600091815b858111156131be57604051806104ac898261455f565b806000526009808352600290868260406000200154146131e9575b50506131e4906149a7565b6131a8565b946132909160ff6131e49497604060002060405193613207856142b4565b8154855289820154898601528101546040850152600381015460608501526132316004820161435d565b60808501526132426005820161435d565b60a08501526132536006820161435d565b60c08501526132646007820161435d565b60e08501526132756008820161435d565b6101008501520154161515610120820152613015828b614f8a565b9390886131d9565b806000526009835283600260406000200154146132be575b6132b9906149a7565b613190565b906132cb6132b9916149a7565b9190506132b0565b34610410576020366003190112610410576004356000526006602052604060002080546133026001830161435d565b9160018060a01b036002820154169060038101549060ff600560048301549201541691613341604051968796875260c0602088015260c0870190614403565b93604086015260608501526080840152151560a08301520390f35b346104105760203660031901126104105760043561337e600e54821115614d8d565b60005260076020526104ac6133996004604060002001615025565b6040519182916020835260208301906145c1565b3461041057602080600319360112610410576004356133d0600e54821115614d8d565b6000526004815260406000209081546133e8816148b9565b906133f6604051928361433c565b8082528282018094600052836000206000915b83831061347d5760408051878152865181890181905289928201908960005b8281106134355784840385f35b855180518552808301518584015260408082015190860152606080820151908601526080808201519086015260a090810151908501529481019460c090930192600101613428565b60068660019260405161348f816142d0565b855481528486015483820152600286015460408201526003860154606082015260048601546080820152600586015460a0820152815201920192019190613409565b34610410576020806003193601126104105760043560018060a01b036134fc81601154163314614950565b61350a600d54831115614ce5565b816000526006835260ff6005604060002001541661363457600082815260068085526040909120600501805460ff818116151660ff199091161790557ffb071d6299bd71490cb62d5ce7358d7d43ab700c9b4a8bff1f869d2d52c0f11793909161360a906135bc60405161357d81614321565b602581527f596f75206861766520617070726f76656420446f636f74722072656769737472858201526430ba34b7b760d91b60408201526105a4614cc3565b84600052838352600260406000200154166040516135d9816142eb565b601d81527f596f757220726567697374726174696f6e20697320617070726f76656400000084820152610627614cc3565b600083815291905260409081902060050154815192835260ff1615156020830152819081016107e3565b60405162461bcd60e51b815260048101849052601a60248201527f446f63746f7220697320616c726561647920617070726f7665640000000000006044820152606490fd5b34610410576020806003193601126104105760043561369c600e54821115614d8d565b60105490600060015b838111156137b857506136b790615140565b9260009160015b848111156136d457604051806104ac888261455f565b80600052600980845282600160406000200154146136fc575b506136f7906149a7565b6136be565b6136f791946137b19160ff6040600020916040519261371a846142b4565b8054845260018101548985015260028101546040850152600381015460608501526137476004820161435d565b60808501526137586005820161435d565b60a08501526137696006820161435d565b60c085015261377a6007820161435d565b60e085015261378b6008820161435d565b61010085015201541615156101208201526137a6828a614f8a565b526110c18189614f8a565b93906136ed565b806000526009855282600160406000200154146137de575b6137d9906149a7565b6136a5565b906137eb6137d9916149a7565b9190506137d0565b34610410576000366003190112610410576020601354604051908152f35b34610410576000366003190112610410576020600c54604051908152f35b34610410576060366003190112610410576001600160401b036004356024358281116104105761386390369060040161449f565b90604435928311610410576138d961388261068194369060040161449f565b336000526138c4602094600a86526138a160ff60406000205416614d29565b6138af600e54861115614d8d565b84600052600786526002604060002001614dea565b82600052600784526005604060002001614dea565b6139376040516138e881614321565b603581527f596f752068617665207375636365737366756c6c79207570646174656420706184820152747469656e74206d65646963616c20686973746f727960581b60408201526105a4614cc3565b600052600781526139ab60018060a01b036003604060002001541660405161395e81614321565b603381527f596f7572206d65646963616c20686973746f727920686173206265656e20757084820152723230ba32b210313c903a3432903237b1ba37b960691b6040820152610627614cc3565b7f50617469656e74206d65646963616c20686973746f727920616e642061747465604051916139d983614321565b603983528201527f73746174696f6e2068617665206265656e20757064617465640000000000000060408201526105a4614cc3565b34610410576020366003190112610410576001600160a01b03613a2f614233565b16600052600a602052602060ff604060002054166040519015158152f35b34610410577f72c1daf6e13ce6ca90b14e03629096ad6d0db94b6cffdce97e62cf5008ab1fd46040613a7e36614443565b613a9360018060a01b03601154163314614950565b613aa1600c54831115614c2b565b816000526005602052806002846000200155611d7b8351613ac181614321565b602381527f4d65646963696e652070726963652075706461746564207375636365737366756020820152626c6c7960e81b858201526105a4614ad9565b3461041057610681613b0f36614443565b336000527f90d667bfa211b72f96ed398bbcfae5988d97e3a4c929a0f5d46888f6899d77a081602093600a8552613b4d60ff60406000205416614d29565b613b5633615212565b60005260068552613b7160ff60056040600020015416614e79565b613b7c600f546149a7565b80600f556004613b8b33615212565b9160405192613b9984614299565b818452888401858152604085019087825260608601928352608086019342855260005260088b5260406000209551865551600186015551600285015551600384015551910155613c1b600f54613bee33615212565b6040519485944293869192608093969594919660a084019784526020840152604083015260608201520152565b0390a1613c70604051613c2d81614321565b602981527f596f752068617665207375636365737366756c6c7920707265736372696265648482015268206d65646963696e6560b81b60408201526105a4614cc3565b6000526007815260018060a01b03613cc98160036040600020015416604051613c98816142eb565b601e81527f446f63746f72207072657363726962656420796f75206d65646963696e65000085820152610627614cc3565b60115416907f446f63746f722070726573637269626564206d65646963696e6520737563636560405191613cfc83614321565b6027835282015266737366756c6c7960c81b6040820152610627614cc3565b34610410576020366003190112610410576004356000526008602052604060002080546104ac6001830154926002810154906004600382015491015491604051958695869192608093969594919660a084019784526020840152604083015260608201520152565b34610410577f1e689cd9ac52751e42953a5acd30b7eac0cc9804ec5c814b2cb6bff6e8ab852b6040613db436614443565b613dc960018060a01b03601154163314614950565b613dd7600c54831115614c2b565b816000526005602052806003846000200155611d7b8351613df781614321565b602681527f4d65646963696e65207175616e746974792075706461746564207375636365736020820152657366756c6c7960d01b858201526105a4614ad9565b3461041057602080600319360112610410576001600160a01b039081613e5b614233565b166000526003908181526040600020908154613e76816148b9565b93613e84604051958661433c565b81855260009384528284208386019491855b848410613f3e575050505050604051928184019082855251809152604084019160408260051b86010193926000965b838810613ed25786860387f35b90919293948380613f2d600193603f198b820301875289518051825286848201511684830152613f10604082015160a0806040860152840190614403565b916060808301519082015260808092015191818403910152614403565b970193019701969093929193613ec5565b60058660019260409a989a51613f5381614299565b865481528c858801541683820152613f6d6002880161435d565b6040820152858701546060820152613f876004880161435d565b6080820152815201930193019291969496613e96565b34610410576020366003190112610410576020613fc0613fbb614233565b6152c4565b6040519015158152f35b346104105760203660031901126104105760043560005260096020526040600020805460018201549160028101549060038101546004820161400b9061435d565b6140176005840161435d565b6140236006850161435d565b916140306007860161435d565b9361403d6008870161435d565b956009015460ff1696604051998a998a5260208a015260408901526060880152610140806080890152870161407191614403565b86810360a088015261408291614403565b85810360c087015261409391614403565b84810360e08601526140a491614403565b8381036101008501526140b691614403565b9015156101208301520390f35b346104105760203660031901126104105760206140e66140e1614233565b615212565b604051908152f35b346104105760203660031901126104105760206140e661410c614233565b615074565b3461041057602036600319011261041057601154610681906001600160a01b031661413d338214614950565b60043560145560405161414f81614321565b602d81527f596f752068617665207375636365737366756c6c79207570646174656420417060208201526c706f696e746d656e742066656560981b6040820152610627614eee565b34610410576020366003190112610410576001600160a01b03600435818116908190036104105780610681926141d36011549182163314614950565b6001600160a01b031916176011556040516141ed81614321565b602b81527f596f752068617665207375636365737366756c6c79207570646174656420616460208201526a6d696e206164647265737360a81b6040820152610627614eee565b600435906001600160a01b038216820361041057565b602435906001600160a01b038216820361041057565b90600182811c9216801561428f575b602083101461427957565b634e487b7160e01b600052602260045260246000fd5b91607f169161426e565b60a081019081106001600160401b03821117610b4057604052565b61014081019081106001600160401b03821117610b4057604052565b60c081019081106001600160401b03821117610b4057604052565b604081019081106001600160401b03821117610b4057604052565b60e081019081106001600160401b03821117610b4057604052565b606081019081106001600160401b03821117610b4057604052565b90601f801991011681019081106001600160401b03821117610b4057604052565b90604051918260008254926143718461425f565b9081845260019485811690816000146143e0575060011461439d575b505061439b9250038361433c565b565b9093915060005260209081600020936000915b8183106143c857505061439b9350820101388061438d565b855488840185015294850194879450918301916143b0565b91505061439b94506020925060ff191682840152151560051b820101388061438d565b919082519283825260005b84811061442f575050826000602080949584010152601f8019910116010190565b60208183018101518483018201520161440e565b6040906003190112610410576004359060243590565b9291926001600160401b038211610b405760405191614482601f8201601f19166020018461433c565b829481845281830111610410578281602093846000960137010152565b9080601f83011215610410578160206144ba93359101614459565b90565b908151815260208201516020820152604082015160408201526060820151606082015261454f61453b6145296145176145056080870151610140806080890152870190614403565b60a087015186820360a0880152614403565b60c086015185820360c0870152614403565b60e085015184820360e0860152614403565b610100808501519084830390850152614403565b9161012080910151151591015290565b602080820190808352835180925260408301928160408460051b8301019501936000915b8483106145935750505050505090565b90919293949584806145b1600193603f198682030187528a516144bd565b9801930193019194939290614583565b90815180825260208080930193019160005b8281106145e1575050505090565b8351855293810193928101926001016145d3565b908082519081815260208091019281808460051b8301019501936000915b8483106146235750505050505090565b9091929394958480614641600193601f198682030187528a51614403565b9801930193019194939290614613565b6144ba918151815260a06146af61468c61467a602086015160c0602087015260c0860190614403565b604086015185820360408701526145f5565b600180841b036060860151166060850152608085015184820360808601526145c1565b9201519060a08184039101526145f5565b908151815260a0806146e1602085015160c0602086015260c0850190614403565b93600180831b03604082015116604085015260608101516060850152608081015160808501520151151591015290565b602080820190808352835180925260408301928160408460051b8301019501936000915b8483106147455750505050505090565b9091929394958480614763600193603f198682030187528a516146c0565b9801930193019194939290614735565b6020908160408183019282815285518094520193019160005b82811061479a575050505090565b909192938260a0826147d7600194895160808091805184526020810151602085015260408101516040850152606081015160608501520151910152565b0195019392910161478c565b91614801906040929594958452606060208501526060840190614403565b6001600160a01b03909416910152565b908151815260c080614865614835602086015160e0602087015260e0860190614403565b60408601516040860152606086015160608601526080860151608086015260a086015185820360a0870152614403565b930151151591015290565b8054821015610b2a576000526006602060002091020190600090565b9181601f84011215610410578235916001600160401b038311610410576020838186019501011161041057565b6001600160401b038111610b405760051b60200190565b9080601f83011215610410578135906148e8826148b9565b926148f6604051948561433c565b828452602092838086019160051b8301019280841161041057848301915b8483106149245750505050505090565b82356001600160401b0381116104105786916149458484809489010161449f565b815201920191614914565b1561495757565b60405162461bcd60e51b815260206004820152602260248201527f4f6e6c792061646d696e2063616e20706572666f726d2074686973206163746960448201526137b760f11b6064820152608490fd5b600019811461223f5760010190565b8181106149c1575050565b600081556001016149b6565b9190601f81116149dc57505050565b61439b926000526020600020906020601f840160051c83019310614a08575b601f0160051c01906149b6565b90915081906149fb565b91909182516001600160401b038111610b4057614a3981614a33845461425f565b846149cd565b602080601f8311600114614a75575081929394600092614a6a575b50508160011b916000199060031b1c1916179055565b015190503880614a54565b90601f198316958460005282600020926000905b888210614ac157505083600195969710614aa8575b505050811b019055565b015160001960f88460031b161c19169055388080614a9e565b80600185968294968601518155019501930190614a89565b60405190614ae6826142eb565b60088252674d65646963696e6560c01b6020830152565b6001600160a01b039081166000818152600360205260408082205481519396919491929190614b2b85614299565b84526020840187815285850191878352606086019342855260808701958652898152600360205287812090815491600160401b831015614c175760018301808255831015614c0357937f9c26059514ab57d9b1c23a991546f58e9339e76427bf2909f3eb15feb61cd5719a99989693614bd7936005602085614be59c9960049b97522091020197518855600188019151166001600160601b0360a01b8254161790555160028601614a12565b516003840155519101614a12565b614bf88151928284938452830190614403565b4260208301520390a2565b634e487b7160e01b82526032600452602482fd5b634e487b7160e01b82526041600452602482fd5b15614c3257565b60405162461bcd60e51b815260206004820152601760248201527f4d65646963696e6520646f6573206e6f742065786973740000000000000000006044820152606490fd5b15614c7e57565b60405162461bcd60e51b815260206004820152601a60248201527f496e636f727265637420726567697374726174696f6e206665650000000000006044820152606490fd5b60405190614cd0826142eb565b60068252652237b1ba37b960d11b6020830152565b15614cec57565b60405162461bcd60e51b8152602060048201526015602482015274111bd8dd1bdc88191bd95cc81b9bdd08195e1a5cdd605a1b6044820152606490fd5b15614d3057565b60405162461bcd60e51b815260206004820152602f60248201527f4f6e6c79207265676973746572656420646f63746f72732063616e207065726660448201526e37b936903a3434b99030b1ba34b7b760891b6064820152608490fd5b15614d9457565b60405162461bcd60e51b815260206004820152601660248201527514185d1a595b9d08191bd95cc81b9bdd08195e1a5cdd60521b6044820152606490fd5b8054821015610b2a5760005260206000200190600090565b8054600160401b811015610b4057614e0791600182018155614dd2565b919091614e175761439b91614a12565b634e487b7160e01b600052600060045260246000fd5b15614e3457565b60405162461bcd60e51b815260206004820152601a60248201527f4170706f696e746d656e7420646f6573206e6f742065786973740000000000006044820152606490fd5b15614e8057565b60405162461bcd60e51b8152602060048201526016602482015275111bd8dd1bdc881a5cc81b9bdd08185c1c1c9bdd995960521b6044820152606490fd5b60405190614ecb826142eb565b600782526614185d1a595b9d60ca1b6020830152565b9190820391821161223f57565b60405190614efb826142eb565b600582526420b236b4b760d91b6020830152565b60405190614f1c82614299565b60006080838281528260208201528260408201528260608201520152565b90614f44826148b9565b614f51604051918261433c565b8281528092614f62601f19916148b9565b019060005b828110614f7357505050565b602090614f7e614f0f565b82828501015201614f67565b8051821015610b2a5760209160051b010190565b60405190614fab826142d0565b606060a083600081528260208201528260408201526000838201528260808201520152565b908154614fdc816148b9565b92614fea604051948561433c565b818452600090815260208082208186015b848410615009575050505050565b60018381926150178561435d565b815201920193019290614ffb565b9060405191828154918282526020928383019160005283600020936000905b82821061505a5750505061439b9250038361433c565b855484526001958601958895509381019390910190615044565b600e5490600060015b838111156150be5760405162461bcd60e51b815260206004820152601160248201527014185d1a595b9d081b9bdd08199bdd5b99607a1b6044820152606490fd5b808252600760205260408220600301546001600160a01b038481169116146150ee576150e9906149a7565b61507d565b9250505090565b60405190615102826142b4565b600061012083828152826020820152826040820152606083818301528060808301528060a08301528060c08301528060e08301526101008201520152565b9061514a826148b9565b615157604051918261433c565b8281528092615168601f19916148b9565b019060005b82811061517957505050565b6020906151846150f5565b8282850101520161516d565b6040519061519d826142d0565b600060a083828152606060208201528260408201528260608201528260808201520152565b906151cc826148b9565b6151d9604051918261433c565b82815280926151ea601f19916148b9565b019060005b8281106151fb57505050565b602090615206615190565b828285010152016151ef565b600d5490600060015b8381111561525b5760405162461bcd60e51b815260206004820152601060248201526f111bd8dd1bdc881b9bdd08199bdd5b9960821b6044820152606490fd5b808252600660205260408220600201546001600160a01b038481169116146150ee57615286906149a7565b61521b565b6040519061529882614306565b600060c08382815260606020820152826040820152826060820152826080820152606060a08201520152565b6001600160a01b03166000908152600160205260409020546152e59061425f565b151590565b8054821015610b2a5760005260206000209060011b0190600090565b9290615311836152c4565b61554e5780156155095760018060a01b0380931693600091858352600191602091838352604085206001600160401b03968783116154f55761535783614a33845461425f565b869183601f811160011461548d57615394938991615482575b50600019600386901b1c191684881b1790555b898752858552856040882001614a12565b6040519560408701908782109082111761546e576040526153b791369190614459565b84528301948552815491600160401b83101561545a57818301808255831015615446579161542f91837f290decd9548b62a8d60345a988386fc84ba6bc95484008f6362f93160ef3e5649594521b9151827f290decd9548b62a8d60345a988386fc84ba6bc95484008f6362f93160ef3e56301614a12565b019151166001600160601b0360a01b825416179055565b634e487b7160e01b81526032600452602490fd5b634e487b7160e01b81526041600452602490fd5b634e487b7160e01b86526041600452602486fd5b905085013538615370565b50808852858820889385601f1981165b898b8289106154db5750506153949650106154c1575b50508684811b019055615383565b860135600019600387901b60f8161c1916905538806154b3565b848b0135865597810197909401939092019187915061549d565b634e487b7160e01b87526041600452602487fd5b60405162461bcd60e51b815260206004820152601860248201527f557365726e616d652063616e6e6f7420626520656d70747900000000000000006044820152606490fd5b60405162461bcd60e51b81526020600482015260136024820152725573657220616c72656164792065786973747360681b6044820152606490fd5b1561559057565b60405162461bcd60e51b8152602060048201526016602482015275155cd95c881a5cc81b9bdd081c9959da5cdd195c995960521b6044820152606490fd5b9081546155da816148b9565b926040936155ea8551918261433c565b828152809460208092019260005281600020906000935b85851061561057505050505050565b6002846001928451615621816142eb565b848060a01b03875416815261563785880161435d565b83820152815201930194019391615601565b1561565057565b60405162461bcd60e51b815260206004820152601760248201527f43726561746520616e206163636f756e742066697273740000000000000000006044820152606490fd5b9192906156a46109a1836152c4565b6156ad836152c4565b15615770576001600160a01b0382811691908416821461571c576156d184846157b5565b156156de575b5050505050565b6156f06156f791615712963691614459565b8484615859565b600052600160205261570c604060002061435d565b91615859565b38808080806156d7565b60405162461bcd60e51b815260206004820152602660248201527f55736572732063616e6e6f7420616464207468656d73656c76657320617320666044820152657269656e647360d01b6064820152608490fd5b60405162461bcd60e51b815260206004820152601760248201527f55736572206973206e6f742072656769737465726564210000000000000000006044820152606490fd5b60018060a01b03906000928282168452600192839260209084825260029160409183838a2001548587168a5284848b20015410615853575b88975b615801575b50505050505050905090565b848116885286825283838920015489101561584e57846158258a86868c20016152ea565b505416858716146158425761583b8798996149a7565b98976157f0565b50505050505091505090565b6157f5565b946157ed565b9190604051615867816142eb565b6001600160a01b03918216815260208082019384529382166000908152600190945260408420600201805490600160401b82101561546e57906158af916001820181556152ea565b9490946158d657505183546001600160a01b03191691161782555161439b91600101614a12565b634e487b7160e01b81526004819052602490fd5b604051906158f7826142eb565b60078252664d65737361676560c81b6020830152565b906001600160a01b03808216908316101561596b5761596561595791604051928391602083019586906028926001600160601b0319809260601b16835260601b1660148201520190565b03601f19810183528261433c565b51902090565b6040516bffffffffffffffffffffffff19606092831b8116602083019081529390921b9091166034820152615965816048810161595756fea264697066735822122065dc0cb17ae2cd0110ccdfc264617149dff00f12d75710d47b61ff419cac136e64736f6c63430008110033",
  "linkReferences": {},
  "deployedLinkReferences": {}
}