{
  "_format": "hh-sol-artifact-1",
  "contractName": "Healthcare",
  "sourceName": "contracts/Medical.sol",
  "abi": [
    {
      "inputs": [],
      "stateMutability": "nonpayable",
      "type": "constructor"
    },
    {
      "anonymous": false,
      "inputs": [
        {
          "indexed": false,
          "internalType": "uint256",
          "name": "id",
          "type": "uint256"
        },
        {
          "indexed": false,
          "internalType": "uint256",
          "name": "patientId",
          "type": "uint256"
        },
        {
          "indexed": false,
          "internalType": "uint256",
          "name": "doctorId",
          "type": "uint256"
        },
        {
          "indexed": false,
          "internalType": "uint256",
          "name": "date",
          "type": "uint256"
        }
      ],
      "name": "APPOINTMENT_BOOKED",
      "type": "event"
    },
    {
      "anonymous": false,
      "inputs": [
        {
          "indexed": false,
          "internalType": "uint256",
          "name": "id",
          "type": "uint256"
        },
        {
          "indexed": false,
          "internalType": "bool",
          "name": "isApproved",
          "type": "bool"
        }
      ],
      "name": "APPROVE_DOCTOR_STATUSD",
      "type": "event"
    },
    {
      "anonymous": false,
      "inputs": [
        {
          "indexed": false,
          "internalType": "uint256",
          "name": "id",
          "type": "uint256"
        },
        {
          "indexed": false,
          "internalType": "string",
          "name": "IPFS_URL",
          "type": "string"
        },
        {
          "indexed": false,
          "internalType": "address",
          "name": "accountAddress",
          "type": "address"
        }
      ],
      "name": "DOCTOR_REGISTERED",
      "type": "event"
    },
    {
      "anonymous": false,
      "inputs": [
        {
          "indexed": false,
          "internalType": "uint256",
          "name": "id",
          "type": "uint256"
        },
        {
          "indexed": false,
          "internalType": "bool",
          "name": "active",
          "type": "bool"
        }
      ],
      "name": "MEDICINE_ACTIVE",
      "type": "event"
    },
    {
      "anonymous": false,
      "inputs": [
        {
          "indexed": false,
          "internalType": "uint256",
          "name": "id",
          "type": "uint256"
        },
        {
          "indexed": false,
          "internalType": "string",
          "name": "url",
          "type": "string"
        },
        {
          "indexed": false,
          "internalType": "string",
          "name": "location",
          "type": "string"
        }
      ],
      "name": "MEDICINE_ADDED",
      "type": "event"
    },
    {
      "anonymous": false,
      "inputs": [
        {
          "indexed": false,
          "internalType": "uint256",
          "name": "patientId",
          "type": "uint256"
        },
        {
          "indexed": false,
          "internalType": "uint256",
          "name": "medicineId",
          "type": "uint256"
        }
      ],
      "name": "MEDICINE_BOUGHT",
      "type": "event"
    },
    {
      "anonymous": false,
      "inputs": [
        {
          "indexed": false,
          "internalType": "uint256",
          "name": "id",
          "type": "uint256"
        },
        {
          "indexed": false,
          "internalType": "uint256",
          "name": "discount",
          "type": "uint256"
        }
      ],
      "name": "MEDICINE_DISCOUNT",
      "type": "event"
    },
    {
      "anonymous": false,
      "inputs": [
        {
          "indexed": false,
          "internalType": "uint256",
          "name": "id",
          "type": "uint256"
        },
        {
          "indexed": false,
          "internalType": "string",
          "name": "newLocation",
          "type": "string"
        }
      ],
      "name": "MEDICINE_LOCATION",
      "type": "event"
    },
    {
      "anonymous": false,
      "inputs": [
        {
          "indexed": false,
          "internalType": "uint256",
          "name": "id",
          "type": "uint256"
        },
        {
          "indexed": false,
          "internalType": "uint256",
          "name": "medicineId",
          "type": "uint256"
        },
        {
          "indexed": false,
          "internalType": "uint256",
          "name": "patientId",
          "type": "uint256"
        },
        {
          "indexed": false,
          "internalType": "uint256",
          "name": "doctorId",
          "type": "uint256"
        },
        {
          "indexed": false,
          "internalType": "uint256",
          "name": "date",
          "type": "uint256"
        }
      ],
      "name": "MEDICINE_PRESCRIBED",
      "type": "event"
    },
    {
      "anonymous": false,
      "inputs": [
        {
          "indexed": false,
          "internalType": "uint256",
          "name": "id",
          "type": "uint256"
        },
        {
          "indexed": false,
          "internalType": "uint256",
          "name": "price",
          "type": "uint256"
        }
      ],
      "name": "MEDICINE_PRICE",
      "type": "event"
    },
    {
      "anonymous": false,
      "inputs": [
        {
          "indexed": false,
          "internalType": "uint256",
          "name": "id",
          "type": "uint256"
        },
        {
          "indexed": false,
          "internalType": "uint256",
          "name": "quantity",
          "type": "uint256"
        }
      ],
      "name": "MEDICINE_QUANTITY",
      "type": "event"
    },
    {
      "anonymous": false,
      "inputs": [
        {
          "indexed": true,
          "internalType": "address",
          "name": "user",
          "type": "address"
        },
        {
          "indexed": false,
          "internalType": "string",
          "name": "message",
          "type": "string"
        },
        {
          "indexed": false,
          "internalType": "uint256",
          "name": "timestamp",
          "type": "uint256"
        }
      ],
      "name": "NOTIFICATiON_SENT",
      "type": "event"
    },
    {
      "anonymous": false,
      "inputs": [
        {
          "indexed": false,
          "internalType": "uint256",
          "name": "id",
          "type": "uint256"
        },
        {
          "indexed": false,
          "internalType": "string",
          "name": "_IPFS_URL",
          "type": "string"
        },
        {
          "indexed": false,
          "internalType": "string[]",
          "name": "medicalHistory",
          "type": "string[]"
        }
      ],
      "name": "PATIENT_ADDED",
      "type": "event"
    },
    {
      "inputs": [
        {
          "internalType": "string",
          "name": "_IPFS_URL",
          "type": "string"
        },
        {
          "internalType": "address",
          "name": "_address",
          "type": "address"
        },
        {
          "internalType": "string",
          "name": "_name",
          "type": "string"
        },
        {
          "internalType": "string",
          "name": "_type",
          "type": "string"
        }
      ],
      "name": "ADD_DOCTOR",
      "outputs": [],
      "stateMutability": "payable",
      "type": "function"
    },
    {
      "inputs": [
        {
          "internalType": "string",
          "name": "_IPFS_URL",
          "type": "string"
        },
        {
          "internalType": "uint256",
          "name": "_price",
          "type": "uint256"
        },
        {
          "internalType": "uint256",
          "name": "_quantity",
          "type": "uint256"
        },
        {
          "internalType": "uint256",
          "name": "_discount",
          "type": "uint256"
        },
        {
          "internalType": "string",
          "name": "_currentLocation",
          "type": "string"
        }
      ],
      "name": "ADD_MEDICINE",
      "outputs": [],
      "stateMutability": "nonpayable",
      "type": "function"
    },
    {
      "inputs": [
        {
          "internalType": "string",
          "name": "_IPFS_URL",
          "type": "string"
        },
        {
          "internalType": "string[]",
          "name": "_medicalHistory",
          "type": "string[]"
        },
        {
          "internalType": "address",
          "name": "_accountAddress",
          "type": "address"
        },
        {
          "internalType": "uint256[]",
          "name": "_boughtMedicines",
          "type": "uint256[]"
        },
        {
          "internalType": "string",
          "name": "_name",
          "type": "string"
        },
        {
          "internalType": "address",
          "name": "_doctorAddress",
          "type": "address"
        },
        {
          "internalType": "string",
          "name": "_doctorName",
          "type": "string"
        },
        {
          "internalType": "string",
          "name": "_type",
          "type": "string"
        }
      ],
      "name": "ADD_PATIENTS",
      "outputs": [],
      "stateMutability": "payable",
      "type": "function"
    },
    {
      "inputs": [
        {
          "internalType": "uint256",
          "name": "_doctorId",
          "type": "uint256"
        }
      ],
      "name": "APPROVE_DOCTOR_STATUS",
      "outputs": [],
      "stateMutability": "nonpayable",
      "type": "function"
    },
    {
      "inputs": [
        {
          "internalType": "uint256",
          "name": "_patientId",
          "type": "uint256"
        },
        {
          "internalType": "uint256",
          "name": "_doctorId",
          "type": "uint256"
        },
        {
          "internalType": "string",
          "name": "_from",
          "type": "string"
        },
        {
          "internalType": "string",
          "name": "_to",
          "type": "string"
        },
        {
          "internalType": "string",
          "name": "_appointmentDate",
          "type": "string"
        },
        {
          "internalType": "string",
          "name": "_condition",
          "type": "string"
        },
        {
          "internalType": "string",
          "name": "_message",
          "type": "string"
        },
        {
          "internalType": "address",
          "name": "_doctorAddress",
          "type": "address"
        },
        {
          "internalType": "string",
          "name": "_name",
          "type": "string"
        }
      ],
      "name": "BOOK_APPOINTMENT",
      "outputs": [],
      "stateMutability": "payable",
      "type": "function"
    },
    {
      "inputs": [
        {
          "internalType": "uint256",
          "name": "_patientId",
          "type": "uint256"
        },
        {
          "internalType": "uint256",
          "name": "_medicineId",
          "type": "uint256"
        },
        {
          "internalType": "uint256",
          "name": "_quantity",
          "type": "uint256"
        }
      ],
      "name": "BUY_MEDICINE",
      "outputs": [],
      "stateMutability": "payable",
      "type": "function"
    },
    {
      "inputs": [
        {
          "internalType": "address",
          "name": "pubkey",
          "type": "address"
        }
      ],
      "name": "CHECK_USER_EXISTS",
      "outputs": [
        {
          "internalType": "bool",
          "name": "",
          "type": "bool"
        }
      ],
      "stateMutability": "view",
      "type": "function"
    },
    {
      "inputs": [
        {
          "internalType": "uint256",
          "name": "_appointmentId",
          "type": "uint256"
        }
      ],
      "name": "COMPLETE_APPOINTMENT",
      "outputs": [],
      "stateMutability": "nonpayable",
      "type": "function"
    },
    {
      "inputs": [],
      "name": "GET_ALL_APPOINTMENTS",
      "outputs": [
        {
          "components": [
            {
              "internalType": "uint256",
              "name": "id",
              "type": "uint256"
            },
            {
              "internalType": "uint256",
              "name": "patientId",
              "type": "uint256"
            },
            {
              "internalType": "uint256",
              "name": "doctorId",
              "type": "uint256"
            },
            {
              "internalType": "uint256",
              "name": "date",
              "type": "uint256"
            },
            {
              "internalType": "string",
              "name": "from",
              "type": "string"
            },
            {
              "internalType": "string",
              "name": "to",
              "type": "string"
            },
            {
              "internalType": "string",
              "name": "appointmentDate",
              "type": "string"
            },
            {
              "internalType": "string",
              "name": "condition",
              "type": "string"
            },
            {
              "internalType": "string",
              "name": "message",
              "type": "string"
            },
            {
              "internalType": "bool",
              "name": "isOpen",
              "type": "bool"
            }
          ],
          "internalType": "struct Healthcare.Appointment[]",
          "name": "",
          "type": "tuple[]"
        }
      ],
      "stateMutability": "view",
      "type": "function"
    },
    {
      "inputs": [],
      "name": "GET_ALL_APPROVED_DOCTORS",
      "outputs": [
        {
          "components": [
            {
              "internalType": "uint256",
              "name": "id",
              "type": "uint256"
            },
            {
              "internalType": "string",
              "name": "IPFS_URL",
              "type": "string"
            },
            {
              "internalType": "address",
              "name": "accountAddress",
              "type": "address"
            },
            {
              "internalType": "uint256",
              "name": "appointmentCount",
              "type": "uint256"
            },
            {
              "internalType": "uint256",
              "name": "successfulTreatmentCount",
              "type": "uint256"
            },
            {
              "internalType": "bool",
              "name": "isApproved",
              "type": "bool"
            }
          ],
          "internalType": "struct Healthcare.Doctor[]",
          "name": "",
          "type": "tuple[]"
        }
      ],
      "stateMutability": "view",
      "type": "function"
    },
    {
      "inputs": [],
      "name": "GET_ALL_APP_USER",
      "outputs": [
        {
          "components": [
            {
              "internalType": "string",
              "name": "name",
              "type": "string"
            },
            {
              "internalType": "address",
              "name": "accountAddress",
              "type": "address"
            }
          ],
          "internalType": "struct Healthcare.AllUserStruck[]",
          "name": "",
          "type": "tuple[]"
        }
      ],
      "stateMutability": "view",
      "type": "function"
    },
    {
      "inputs": [
        {
          "internalType": "uint256",
          "name": "patientId",
          "type": "uint256"
        }
      ],
      "name": "GET_ALL_PATIENT_ORDERS",
      "outputs": [
        {
          "components": [
            {
              "internalType": "uint256",
              "name": "medicineId",
              "type": "uint256"
            },
            {
              "internalType": "uint256",
              "name": "price",
              "type": "uint256"
            },
            {
              "internalType": "uint256",
              "name": "payAmount",
              "type": "uint256"
            },
            {
              "internalType": "uint256",
              "name": "quantity",
              "type": "uint256"
            },
            {
              "internalType": "uint256",
              "name": "patientId",
              "type": "uint256"
            },
            {
              "internalType": "uint256",
              "name": "date",
              "type": "uint256"
            }
          ],
          "internalType": "struct Healthcare.Order[]",
          "name": "",
          "type": "tuple[]"
        }
      ],
      "stateMutability": "view",
      "type": "function"
    },
    {
      "inputs": [],
      "name": "GET_ALL_PRESCRIBED_MEDICINES",
      "outputs": [
        {
          "components": [
            {
              "internalType": "uint256",
              "name": "id",
              "type": "uint256"
            },
            {
              "internalType": "uint256",
              "name": "medicineId",
              "type": "uint256"
            },
            {
              "internalType": "uint256",
              "name": "patientId",
              "type": "uint256"
            },
            {
              "internalType": "uint256",
              "name": "doctorId",
              "type": "uint256"
            },
            {
              "internalType": "uint256",
              "name": "date",
              "type": "uint256"
            }
          ],
          "internalType": "struct Healthcare.Prescription[]",
          "name": "",
          "type": "tuple[]"
        }
      ],
      "stateMutability": "view",
      "type": "function"
    },
    {
      "inputs": [
        {
          "internalType": "uint256",
          "name": "patientId",
          "type": "uint256"
        }
      ],
      "name": "GET_ALL_PRESCRIBED_MEDICINES_OF_PATIENT",
      "outputs": [
        {
          "components": [
            {
              "internalType": "uint256",
              "name": "id",
              "type": "uint256"
            },
            {
              "internalType": "uint256",
              "name": "medicineId",
              "type": "uint256"
            },
            {
              "internalType": "uint256",
              "name": "patientId",
              "type": "uint256"
            },
            {
              "internalType": "uint256",
              "name": "doctorId",
              "type": "uint256"
            },
            {
              "internalType": "uint256",
              "name": "date",
              "type": "uint256"
            }
          ],
          "internalType": "struct Healthcare.Prescription[]",
          "name": "",
          "type": "tuple[]"
        }
      ],
      "stateMutability": "view",
      "type": "function"
    },
    {
      "inputs": [],
      "name": "GET_ALL_REGISTERED_DOCTORS",
      "outputs": [
        {
          "components": [
            {
              "internalType": "uint256",
              "name": "id",
              "type": "uint256"
            },
            {
              "internalType": "string",
              "name": "IPFS_URL",
              "type": "string"
            },
            {
              "internalType": "address",
              "name": "accountAddress",
              "type": "address"
            },
            {
              "internalType": "uint256",
              "name": "appointmentCount",
              "type": "uint256"
            },
            {
              "internalType": "uint256",
              "name": "successfulTreatmentCount",
              "type": "uint256"
            },
            {
              "internalType": "bool",
              "name": "isApproved",
              "type": "bool"
            }
          ],
          "internalType": "struct Healthcare.Doctor[]",
          "name": "",
          "type": "tuple[]"
        }
      ],
      "stateMutability": "view",
      "type": "function"
    },
    {
      "inputs": [],
      "name": "GET_ALL_REGISTERED_MEDICINES",
      "outputs": [
        {
          "components": [
            {
              "internalType": "uint256",
              "name": "id",
              "type": "uint256"
            },
            {
              "internalType": "string",
              "name": "IPFS_URL",
              "type": "string"
            },
            {
              "internalType": "uint256",
              "name": "price",
              "type": "uint256"
            },
            {
              "internalType": "uint256",
              "name": "quantity",
              "type": "uint256"
            },
            {
              "internalType": "uint256",
              "name": "discount",
              "type": "uint256"
            },
            {
              "internalType": "string",
              "name": "currentLocation",
              "type": "string"
            },
            {
              "internalType": "bool",
              "name": "active",
              "type": "bool"
            }
          ],
          "internalType": "struct Healthcare.Medicine[]",
          "name": "",
          "type": "tuple[]"
        }
      ],
      "stateMutability": "view",
      "type": "function"
    },
    {
      "inputs": [],
      "name": "GET_ALL_REGISTERED_PATIENTS",
      "outputs": [
        {
          "components": [
            {
              "internalType": "uint256",
              "name": "id",
              "type": "uint256"
            },
            {
              "internalType": "string",
              "name": "IPFS_URL",
              "type": "string"
            },
            {
              "internalType": "string[]",
              "name": "medicalHistory",
              "type": "string[]"
            },
            {
              "internalType": "address",
              "name": "accountAddress",
              "type": "address"
            },
            {
              "internalType": "uint256[]",
              "name": "boughtMedicines",
              "type": "uint256[]"
            }
          ],
          "internalType": "struct Healthcare.Patient[]",
          "name": "",
          "type": "tuple[]"
        }
      ],
      "stateMutability": "view",
      "type": "function"
    },
    {
      "inputs": [
        {
          "internalType": "uint256",
          "name": "_patientId",
          "type": "uint256"
        }
      ],
      "name": "GET_BOUGHT_MEDICINE_BY_PAITENT",
      "outputs": [
        {
          "internalType": "uint256[]",
          "name": "",
          "type": "uint256[]"
        }
      ],
      "stateMutability": "view",
      "type": "function"
    },
    {
      "inputs": [
        {
          "internalType": "uint256",
          "name": "_doctorId",
          "type": "uint256"
        }
      ],
      "name": "GET_DOCTOR_APPOINTMENTS_HISTORYS",
      "outputs": [
        {
          "components": [
            {
              "internalType": "uint256",
              "name": "id",
              "type": "uint256"
            },
            {
              "internalType": "uint256",
              "name": "patientId",
              "type": "uint256"
            },
            {
              "internalType": "uint256",
              "name": "doctorId",
              "type": "uint256"
            },
            {
              "internalType": "uint256",
              "name": "date",
              "type": "uint256"
            },
            {
              "internalType": "string",
              "name": "from",
              "type": "string"
            },
            {
              "internalType": "string",
              "name": "to",
              "type": "string"
            },
            {
              "internalType": "string",
              "name": "appointmentDate",
              "type": "string"
            },
            {
              "internalType": "string",
              "name": "condition",
              "type": "string"
            },
            {
              "internalType": "string",
              "name": "message",
              "type": "string"
            },
            {
              "internalType": "bool",
              "name": "isOpen",
              "type": "bool"
            }
          ],
          "internalType": "struct Healthcare.Appointment[]",
          "name": "",
          "type": "tuple[]"
        }
      ],
      "stateMutability": "view",
      "type": "function"
    },
    {
      "inputs": [
        {
          "internalType": "uint256",
          "name": "_doctorId",
          "type": "uint256"
        }
      ],
      "name": "GET_DOCTOR_DETAILS",
      "outputs": [
        {
          "components": [
            {
              "internalType": "uint256",
              "name": "id",
              "type": "uint256"
            },
            {
              "internalType": "string",
              "name": "IPFS_URL",
              "type": "string"
            },
            {
              "internalType": "address",
              "name": "accountAddress",
              "type": "address"
            },
            {
              "internalType": "uint256",
              "name": "appointmentCount",
              "type": "uint256"
            },
            {
              "internalType": "uint256",
              "name": "successfulTreatmentCount",
              "type": "uint256"
            },
            {
              "internalType": "bool",
              "name": "isApproved",
              "type": "bool"
            }
          ],
          "internalType": "struct Healthcare.Doctor",
          "name": "",
          "type": "tuple"
        }
      ],
      "stateMutability": "view",
      "type": "function"
    },
    {
      "inputs": [
        {
          "internalType": "address",
          "name": "_doctorAddress",
          "type": "address"
        }
      ],
      "name": "GET_DOCTOR_ID",
      "outputs": [
        {
          "internalType": "uint256",
          "name": "",
          "type": "uint256"
        }
      ],
      "stateMutability": "view",
      "type": "function"
    },
    {
      "inputs": [
        {
          "internalType": "uint256",
          "name": "_medicineId",
          "type": "uint256"
        }
      ],
      "name": "GET_MEDICINE_DETAILS",
      "outputs": [
        {
          "components": [
            {
              "internalType": "uint256",
              "name": "id",
              "type": "uint256"
            },
            {
              "internalType": "string",
              "name": "IPFS_URL",
              "type": "string"
            },
            {
              "internalType": "uint256",
              "name": "price",
              "type": "uint256"
            },
            {
              "internalType": "uint256",
              "name": "quantity",
              "type": "uint256"
            },
            {
              "internalType": "uint256",
              "name": "discount",
              "type": "uint256"
            },
            {
              "internalType": "string",
              "name": "currentLocation",
              "type": "string"
            },
            {
              "internalType": "bool",
              "name": "active",
              "type": "bool"
            }
          ],
          "internalType": "struct Healthcare.Medicine",
          "name": "",
          "type": "tuple"
        }
      ],
      "stateMutability": "view",
      "type": "function"
    },
    {
      "inputs": [],
      "name": "GET_MOST_POPULAR_DOCTOR",
      "outputs": [
        {
          "components": [
            {
              "internalType": "uint256",
              "name": "id",
              "type": "uint256"
            },
            {
              "internalType": "string",
              "name": "IPFS_URL",
              "type": "string"
            },
            {
              "internalType": "address",
              "name": "accountAddress",
              "type": "address"
            },
            {
              "internalType": "uint256",
              "name": "appointmentCount",
              "type": "uint256"
            },
            {
              "internalType": "uint256",
              "name": "successfulTreatmentCount",
              "type": "uint256"
            },
            {
              "internalType": "bool",
              "name": "isApproved",
              "type": "bool"
            }
          ],
          "internalType": "struct Healthcare.Doctor",
          "name": "",
          "type": "tuple"
        }
      ],
      "stateMutability": "view",
      "type": "function"
    },
    {
      "inputs": [
        {
          "internalType": "address",
          "name": "_address",
          "type": "address"
        }
      ],
      "name": "GET_MY_FRIEND_LIST",
      "outputs": [
        {
          "components": [
            {
              "internalType": "address",
              "name": "pubkey",
              "type": "address"
            },
            {
              "internalType": "string",
              "name": "name",
              "type": "string"
            }
          ],
          "internalType": "struct Healthcare.friend[]",
          "name": "",
          "type": "tuple[]"
        }
      ],
      "stateMutability": "view",
      "type": "function"
    },
    {
      "inputs": [
        {
          "internalType": "address",
          "name": "_userAddress",
          "type": "address"
        }
      ],
      "name": "GET_NOTIFICATIONS",
      "outputs": [
        {
          "components": [
            {
              "internalType": "uint256",
              "name": "id",
              "type": "uint256"
            },
            {
              "internalType": "address",
              "name": "userAddress",
              "type": "address"
            },
            {
              "internalType": "string",
              "name": "message",
              "type": "string"
            },
            {
              "internalType": "uint256",
              "name": "timestamp",
              "type": "uint256"
            },
            {
              "internalType": "string",
              "name": "categoryType",
              "type": "string"
            }
          ],
          "internalType": "struct Healthcare.Notification[]",
          "name": "",
          "type": "tuple[]"
        }
      ],
      "stateMutability": "view",
      "type": "function"
    },
    {
      "inputs": [
        {
          "internalType": "uint256",
          "name": "_appointmentId",
          "type": "uint256"
        }
      ],
      "name": "GET_PATIENT_APPOINTMENT",
      "outputs": [
        {
          "components": [
            {
              "internalType": "uint256",
              "name": "id",
              "type": "uint256"
            },
            {
              "internalType": "uint256",
              "name": "patientId",
              "type": "uint256"
            },
            {
              "internalType": "uint256",
              "name": "doctorId",
              "type": "uint256"
            },
            {
              "internalType": "uint256",
              "name": "date",
              "type": "uint256"
            },
            {
              "internalType": "string",
              "name": "from",
              "type": "string"
            },
            {
              "internalType": "string",
              "name": "to",
              "type": "string"
            },
            {
              "internalType": "string",
              "name": "appointmentDate",
              "type": "string"
            },
            {
              "internalType": "string",
              "name": "condition",
              "type": "string"
            },
            {
              "internalType": "string",
              "name": "message",
              "type": "string"
            },
            {
              "internalType": "bool",
              "name": "isOpen",
              "type": "bool"
            }
          ],
          "internalType": "struct Healthcare.Appointment",
          "name": "",
          "type": "tuple"
        }
      ],
      "stateMutability": "view",
      "type": "function"
    },
    {
      "inputs": [
        {
          "internalType": "uint256",
          "name": "_patientId",
          "type": "uint256"
        }
      ],
      "name": "GET_PATIENT_APPOINTMENT_HISTORYS",
      "outputs": [
        {
          "components": [
            {
              "internalType": "uint256",
              "name": "id",
              "type": "uint256"
            },
            {
              "internalType": "uint256",
              "name": "patientId",
              "type": "uint256"
            },
            {
              "internalType": "uint256",
              "name": "doctorId",
              "type": "uint256"
            },
            {
              "internalType": "uint256",
              "name": "date",
              "type": "uint256"
            },
            {
              "internalType": "string",
              "name": "from",
              "type": "string"
            },
            {
              "internalType": "string",
              "name": "to",
              "type": "string"
            },
            {
              "internalType": "string",
              "name": "appointmentDate",
              "type": "string"
            },
            {
              "internalType": "string",
              "name": "condition",
              "type": "string"
            },
            {
              "internalType": "string",
              "name": "message",
              "type": "string"
            },
            {
              "internalType": "bool",
              "name": "isOpen",
              "type": "bool"
            }
          ],
          "internalType": "struct Healthcare.Appointment[]",
          "name": "",
          "type": "tuple[]"
        }
      ],
      "stateMutability": "view",
      "type": "function"
    },
    {
      "inputs": [
        {
          "internalType": "uint256",
          "name": "_patientId",
          "type": "uint256"
        }
      ],
      "name": "GET_PATIENT_DETAILS",
      "outputs": [
        {
          "components": [
            {
              "internalType": "uint256",
              "name": "id",
              "type": "uint256"
            },
            {
              "internalType": "string",
              "name": "IPFS_URL",
              "type": "string"
            },
            {
              "internalType": "string[]",
              "name": "medicalHistory",
              "type": "string[]"
            },
            {
              "internalType": "address",
              "name": "accountAddress",
              "type": "address"
            },
            {
              "internalType": "uint256[]",
              "name": "boughtMedicines",
              "type": "uint256[]"
            }
          ],
          "internalType": "struct Healthcare.Patient",
          "name": "",
          "type": "tuple"
        }
      ],
      "stateMutability": "view",
      "type": "function"
    },
    {
      "inputs": [
        {
          "internalType": "address",
          "name": "_patientAddress",
          "type": "address"
        }
      ],
      "name": "GET_PATIENT_ID",
      "outputs": [
        {
          "internalType": "uint256",
          "name": "",
          "type": "uint256"
        }
      ],
      "stateMutability": "view",
      "type": "function"
    },
    {
      "inputs": [
        {
          "internalType": "uint256",
          "name": "_patientId",
          "type": "uint256"
        }
      ],
      "name": "GET_PATIENT_MEDICIAL_HISTORY",
      "outputs": [
        {
          "internalType": "string[]",
          "name": "",
          "type": "string[]"
        }
      ],
      "stateMutability": "view",
      "type": "function"
    },
    {
      "inputs": [
        {
          "internalType": "uint256",
          "name": "_prescriptionId",
          "type": "uint256"
        }
      ],
      "name": "GET_PRESCRIPTION_DETAILS",
      "outputs": [
        {
          "components": [
            {
              "internalType": "uint256",
              "name": "id",
              "type": "uint256"
            },
            {
              "internalType": "uint256",
              "name": "medicineId",
              "type": "uint256"
            },
            {
              "internalType": "uint256",
              "name": "patientId",
              "type": "uint256"
            },
            {
              "internalType": "uint256",
              "name": "doctorId",
              "type": "uint256"
            },
            {
              "internalType": "uint256",
              "name": "date",
              "type": "uint256"
            }
          ],
          "internalType": "struct Healthcare.Prescription",
          "name": "",
          "type": "tuple"
        }
      ],
      "stateMutability": "view",
      "type": "function"
    },
    {
      "inputs": [
        {
          "internalType": "address",
          "name": "friend_key",
          "type": "address"
        },
        {
          "internalType": "address",
          "name": "_myAddress",
          "type": "address"
        }
      ],
      "name": "GET_READ_MESSAGE",
      "outputs": [
        {
          "components": [
            {
              "internalType": "address",
              "name": "sender",
              "type": "address"
            },
            {
              "internalType": "uint256",
              "name": "timestamp",
              "type": "uint256"
            },
            {
              "internalType": "string",
              "name": "msg",
              "type": "string"
            }
          ],
          "internalType": "struct Healthcare.message[]",
          "name": "",
          "type": "tuple[]"
        }
      ],
      "stateMutability": "view",
      "type": "function"
    },
    {
      "inputs": [
        {
          "internalType": "address",
          "name": "pubkey",
          "type": "address"
        }
      ],
      "name": "GET_USERNAME_TYPE",
      "outputs": [
        {
          "components": [
            {
              "internalType": "string",
              "name": "name",
              "type": "string"
            },
            {
              "internalType": "string",
              "name": "userType",
              "type": "string"
            },
            {
              "components": [
                {
                  "internalType": "address",
                  "name": "pubkey",
                  "type": "address"
                },
                {
                  "internalType": "string",
                  "name": "name",
                  "type": "string"
                }
              ],
              "internalType": "struct Healthcare.friend[]",
              "name": "friendList",
              "type": "tuple[]"
            }
          ],
          "internalType": "struct Healthcare.User",
          "name": "",
          "type": "tuple"
        }
      ],
      "stateMutability": "view",
      "type": "function"
    },
    {
      "inputs": [
        {
          "internalType": "uint256",
          "name": "_medicineId",
          "type": "uint256"
        },
        {
          "internalType": "uint256",
          "name": "_patientId",
          "type": "uint256"
        }
      ],
      "name": "PRESCRIBE_MEDICINE",
      "outputs": [],
      "stateMutability": "nonpayable",
      "type": "function"
    },
    {
      "inputs": [
        {
          "internalType": "address payable",
          "name": "_newAddress",
          "type": "address"
        }
      ],
      "name": "UPDATE_ADMIN_ADDRESS",
      "outputs": [],
      "stateMutability": "nonpayable",
      "type": "function"
    },
    {
      "inputs": [
        {
          "internalType": "uint256",
          "name": "_newFee",
          "type": "uint256"
        }
      ],
      "name": "UPDATE_APPOINTMENT_FEE",
      "outputs": [],
      "stateMutability": "nonpayable",
      "type": "function"
    },
    {
      "inputs": [
        {
          "internalType": "uint256",
          "name": "_medicineId",
          "type": "uint256"
        }
      ],
      "name": "UPDATE_MEDICINE_ACTIVE",
      "outputs": [],
      "stateMutability": "nonpayable",
      "type": "function"
    },
    {
      "inputs": [
        {
          "internalType": "uint256",
          "name": "_medicineId",
          "type": "uint256"
        },
        {
          "internalType": "uint256",
          "name": "_discount",
          "type": "uint256"
        }
      ],
      "name": "UPDATE_MEDICINE_DISCOUNT",
      "outputs": [],
      "stateMutability": "nonpayable",
      "type": "function"
    },
    {
      "inputs": [
        {
          "internalType": "uint256",
          "name": "_medicineId",
          "type": "uint256"
        },
        {
          "internalType": "string",
          "name": "_newLocation",
          "type": "string"
        }
      ],
      "name": "UPDATE_MEDICINE_LOCATION",
      "outputs": [],
      "stateMutability": "nonpayable",
      "type": "function"
    },
    {
      "inputs": [
        {
          "internalType": "uint256",
          "name": "_medicineId",
          "type": "uint256"
        },
        {
          "internalType": "uint256",
          "name": "_price",
          "type": "uint256"
        }
      ],
      "name": "UPDATE_MEDICINE_PRICE",
      "outputs": [],
      "stateMutability": "nonpayable",
      "type": "function"
    },
    {
      "inputs": [
        {
          "internalType": "uint256",
          "name": "_medicineId",
          "type": "uint256"
        },
        {
          "internalType": "uint256",
          "name": "_quantity",
          "type": "uint256"
        }
      ],
      "name": "UPDATE_MEDICINE_QUANTITY",
      "outputs": [],
      "stateMutability": "nonpayable",
      "type": "function"
    },
    {
      "inputs": [
        {
          "internalType": "uint256",
          "name": "_patientId",
          "type": "uint256"
        },
        {
          "internalType": "string",
          "name": "_newMedicalHistory",
          "type": "string"
        }
      ],
      "name": "UPDATE_PATIENT_MEDICAL_HISTORY",
      "outputs": [],
      "stateMutability": "nonpayable",
      "type": "function"
    },
    {
      "inputs": [
        {
          "internalType": "uint256",
          "name": "_newFee",
          "type": "uint256"
        }
      ],
      "name": "UPDATE_REGISTRATION_FEE",
      "outputs": [],
      "stateMutability": "nonpayable",
      "type": "function"
    },
    {
      "inputs": [
        {
          "internalType": "uint256",
          "name": "_newFee",
          "type": "uint256"
        }
      ],
      "name": "UPDATE_REGISTRATION_PATIENT_FEE",
      "outputs": [],
      "stateMutability": "nonpayable",
      "type": "function"
    },
    {
      "inputs": [
        {
          "internalType": "address",
          "name": "friend_key",
          "type": "address"
        },
        {
          "internalType": "address",
          "name": "_myAddress",
          "type": "address"
        },
        {
          "internalType": "string",
          "name": "_msg",
          "type": "string"
        }
      ],
      "name": "_SEND_MESSAGE",
      "outputs": [],
      "stateMutability": "nonpayable",
      "type": "function"
    },
    {
      "inputs": [],
      "name": "admin",
      "outputs": [
        {
          "internalType": "address payable",
          "name": "",
          "type": "address"
        }
      ],
      "stateMutability": "view",
      "type": "function"
    },
    {
      "inputs": [],
      "name": "appointmentCount",
      "outputs": [
        {
          "internalType": "uint256",
          "name": "",
          "type": "uint256"
        }
      ],
      "stateMutability": "view",
      "type": "function"
    },
    {
      "inputs": [],
      "name": "appointmentFee",
      "outputs": [
        {
          "internalType": "uint256",
          "name": "",
          "type": "uint256"
        }
      ],
      "stateMutability": "view",
      "type": "function"
    },
    {
      "inputs": [
        {
          "internalType": "uint256",
          "name": "",
          "type": "uint256"
        }
      ],
      "name": "appointments",
      "outputs": [
        {
          "internalType": "uint256",
          "name": "id",
          "type": "uint256"
        },
        {
          "internalType": "uint256",
          "name": "patientId",
          "type": "uint256"
        },
        {
          "internalType": "uint256",
          "name": "doctorId",
          "type": "uint256"
        },
        {
          "internalType": "uint256",
          "name": "date",
          "type": "uint256"
        },
        {
          "internalType": "string",
          "name": "from",
          "type": "string"
        },
        {
          "internalType": "string",
          "name": "to",
          "type": "string"
        },
        {
          "internalType": "string",
          "name": "appointmentDate",
          "type": "string"
        },
        {
          "internalType": "string",
          "name": "condition",
          "type": "string"
        },
        {
          "internalType": "string",
          "name": "message",
          "type": "string"
        },
        {
          "internalType": "bool",
          "name": "isOpen",
          "type": "bool"
        }
      ],
      "stateMutability": "view",
      "type": "function"
    },
    {
      "inputs": [],
      "name": "doctorCount",
      "outputs": [
        {
          "internalType": "uint256",
          "name": "",
          "type": "uint256"
        }
      ],
      "stateMutability": "view",
      "type": "function"
    },
    {
      "inputs": [
        {
          "internalType": "uint256",
          "name": "",
          "type": "uint256"
        }
      ],
      "name": "doctors",
      "outputs": [
        {
          "internalType": "uint256",
          "name": "id",
          "type": "uint256"
        },
        {
          "internalType": "string",
          "name": "IPFS_URL",
          "type": "string"
        },
        {
          "internalType": "address",
          "name": "accountAddress",
          "type": "address"
        },
        {
          "internalType": "uint256",
          "name": "appointmentCount",
          "type": "uint256"
        },
        {
          "internalType": "uint256",
          "name": "successfulTreatmentCount",
          "type": "uint256"
        },
        {
          "internalType": "bool",
          "name": "isApproved",
          "type": "bool"
        }
      ],
      "stateMutability": "view",
      "type": "function"
    },
    {
      "inputs": [],
      "name": "medicineCount",
      "outputs": [
        {
          "internalType": "uint256",
          "name": "",
          "type": "uint256"
        }
      ],
      "stateMutability": "view",
      "type": "function"
    },
    {
      "inputs": [
        {
          "internalType": "uint256",
          "name": "",
          "type": "uint256"
        }
      ],
      "name": "medicines",
      "outputs": [
        {
          "internalType": "uint256",
          "name": "id",
          "type": "uint256"
        },
        {
          "internalType": "string",
          "name": "IPFS_URL",
          "type": "string"
        },
        {
          "internalType": "uint256",
          "name": "price",
          "type": "uint256"
        },
        {
          "internalType": "uint256",
          "name": "quantity",
          "type": "uint256"
        },
        {
          "internalType": "uint256",
          "name": "discount",
          "type": "uint256"
        },
        {
          "internalType": "string",
          "name": "currentLocation",
          "type": "string"
        },
        {
          "internalType": "bool",
          "name": "active",
          "type": "bool"
        }
      ],
      "stateMutability": "view",
      "type": "function"
    },
    {
      "inputs": [],
      "name": "patientCount",
      "outputs": [
        {
          "internalType": "uint256",
          "name": "",
          "type": "uint256"
        }
      ],
      "stateMutability": "view",
      "type": "function"
    },
    {
      "inputs": [
        {
          "internalType": "uint256",
          "name": "",
          "type": "uint256"
        },
        {
          "internalType": "uint256",
          "name": "",
          "type": "uint256"
        }
      ],
      "name": "patientOrders",
      "outputs": [
        {
          "internalType": "uint256",
          "name": "medicineId",
          "type": "uint256"
        },
        {
          "internalType": "uint256",
          "name": "price",
          "type": "uint256"
        },
        {
          "internalType": "uint256",
          "name": "payAmount",
          "type": "uint256"
        },
        {
          "internalType": "uint256",
          "name": "quantity",
          "type": "uint256"
        },
        {
          "internalType": "uint256",
          "name": "patientId",
          "type": "uint256"
        },
        {
          "internalType": "uint256",
          "name": "date",
          "type": "uint256"
        }
      ],
      "stateMutability": "view",
      "type": "function"
    },
    {
      "inputs": [
        {
          "internalType": "uint256",
          "name": "",
          "type": "uint256"
        }
      ],
      "name": "patients",
      "outputs": [
        {
          "internalType": "uint256",
          "name": "id",
          "type": "uint256"
        },
        {
          "internalType": "string",
          "name": "IPFS_URL",
          "type": "string"
        },
        {
          "internalType": "address",
          "name": "accountAddress",
          "type": "address"
        }
      ],
      "stateMutability": "view",
      "type": "function"
    },
    {
      "inputs": [],
      "name": "prescriptionCount",
      "outputs": [
        {
          "internalType": "uint256",
          "name": "",
          "type": "uint256"
        }
      ],
      "stateMutability": "view",
      "type": "function"
    },
    {
      "inputs": [
        {
          "internalType": "uint256",
          "name": "",
          "type": "uint256"
        }
      ],
      "name": "prescriptions",
      "outputs": [
        {
          "internalType": "uint256",
          "name": "id",
          "type": "uint256"
        },
        {
          "internalType": "uint256",
          "name": "medicineId",
          "type": "uint256"
        },
        {
          "internalType": "uint256",
          "name": "patientId",
          "type": "uint256"
        },
        {
          "internalType": "uint256",
          "name": "doctorId",
          "type": "uint256"
        },
        {
          "internalType": "uint256",
          "name": "date",
          "type": "uint256"
        }
      ],
      "stateMutability": "view",
      "type": "function"
    },
    {
      "inputs": [
        {
          "internalType": "address",
          "name": "",
          "type": "address"
        }
      ],
      "name": "registeredDoctors",
      "outputs": [
        {
          "internalType": "bool",
          "name": "",
          "type": "bool"
        }
      ],
      "stateMutability": "view",
      "type": "function"
    },
    {
      "inputs": [
        {
          "internalType": "address",
          "name": "",
          "type": "address"
        }
      ],
      "name": "registeredPatients",
      "outputs": [
        {
          "internalType": "bool",
          "name": "",
          "type": "bool"
        }
      ],
      "stateMutability": "view",
      "type": "function"
    },
    {
      "inputs": [],
      "name": "registrationDoctorFee",
      "outputs": [
        {
          "internalType": "uint256",
          "name": "",
          "type": "uint256"
        }
      ],
      "stateMutability": "view",
      "type": "function"
    },
    {
      "inputs": [],
      "name": "registrationPatientFee",
      "outputs": [
        {
          "internalType": "uint256",
          "name": "",
          "type": "uint256"
        }
      ],
      "stateMutability": "view",
      "type": "function"
    }
  ],
  "bytecode": "0x60808060405234610043576608e1bc9bf04000601281905565e35fa931a000601355601455601180546001600160a01b031916331790556157f59081620000498239f35b600080fdfe6080604052600436101561001257600080fd5b60003560e01c806302cce77014614068578063046a07ed14613fe257806304c0adb714613fbf578063082ed54714613f9457806312dc901314613e9b5780631b82207e14613e6e5780632a42e74c14613d085780632c486bd514613c5457806331dfc91b14613bec578063354b365f14613a5157806337a92da71461383457806339d519a9146137835780633f308cd2146137445780634dafd49014613726578063540a661414613708578063559160b81461358e5780635597958e146133e657806356baa64e146132c25780635970cea414612d37578063636d362714612ce65780636efb1b8414612c5d57806372de440114612aea57806374cdd53414612a71578063770d954d14612a0a57806378522bc4146129ec5780637c0b501a146128dd578063828b10da146127bd5780638366304b14612410578063842f8dd0146122c657806384e7aa2e1461214b5780638c9e245d146120b557806393119a83146120695780639cdaaad81461202a5780639fea8c2614611ec5578063a0303c4114611ea7578063a48f87d014611e35578063a72c162314611d48578063b039ece914611c16578063b27b24f814611afe578063b3e0c71014611a4b578063b655849814611a2d578063b884db7514611749578063bbece2bb14611688578063c0a5999a14611592578063c85e766d146114f5578063d0da2306146113cd578063d174ea411461133e578063dabf826a14611320578063dd1bf9021461116c578063e40b850e1461114e578063e92f0a68146110ae578063ea51cd6c14610fa5578063ebd557d914610b85578063ed74e8481461092c578063eebc3fb21461090e578063f27e44cc14610873578063f28136a9146107ec578063f851a440146107c3578063fb5333b7146106e5578063fd9510d5146104b0578063fe60efa1146104155763ff09a64e146102c657600080fd5b34610410576020366003190112610410576102df614104565b6060604080516102ee816141f2565b828152826020820152015261030a610305826150e0565b6153a5565b60018060a01b03166000526001806020526040600020906040519061032e826141f2565b6103378361422e565b825261039261035a600261034c84870161422e565b9560208601968752016153ea565b936040840194855261037f6040519460208652516060602087015260808601906142d4565b9051848203601f190160408601526142d4565b925192601f19838203016060840152835180825260208201916020808360051b8301019601926000915b8383106103c95786880387f35b90919293946020806103ff839a601f198682030187526040838b5160018060a01b038151168452015191818582015201906142d4565b9997019594919091019201906103bc565b600080fd5b346104105760203660031901126104105761042e614fac565b5060043560005260066020526104ac604060002060ff600560405192610453846141a1565b805484526104636001820161422e565b602085015260018060a01b0360028201541660408501526003810154606085015260048101546080850152015416151560a08201526040519182916020835260208301906145e9565b0390f35b3461041057602080600319360112610410576004359033600052600a81526104df60ff60406000205416614b8e565b6104ed601054831115614c4f565b81600052600981526002604060002001546105073361502e565b0361068357816106819260005260098252600960406000200160ff1981541690556105313361502e565b60005260068252600460406000200161054a815461480c565b90556105ab60405161055b816141f2565b602f81527f596f752068617665207375636365737366756c6c7920636f6d706c6574656420848201526e1d1a1948185c1c1bda5b9d1b595b9d608a1b60408201526105a4614b28565b9033614962565b600052600981526001604060002001546000526007815260018060a01b0361062d81600360406000200154166040516105e3816141f2565b602a81527f596f7572204170706f696e746d656e74206973207375636365737366756c6c7985820152690818dbdb5c1b195d195960b21b6040820152610627614b28565b91614962565b60115416907f446f63746f7220636f6d706c65746564206170706f696e746d656e742073756360405191610660836141f2565b60298352820152686365737366756c6c7960b81b6040820152610627614b28565b005b6084906040519062461bcd60e51b82526004820152603560248201527f4f6e6c79207468652061737369676e656420646f63746f722063616e20636f6d6044820152741c1b195d19481d1a1948185c1c1bda5b9d1b595b9d605a1b6064820152fd5b34610410577f573cca7a8cd583da809cdb83b4ea8dec06c87da579a25478cc69566672e2b5896107143661438e565b9061072a60018060a01b036011541633146147b5565b610738600c54821115614a90565b806000526005602052610752826005604060002001614877565b6107a2604051610761816141f2565b602681527f4d65646963696e65206c6f636174696f6e2075706461746564207375636365736020820152657366756c6c7960d01b60408201526105a461493e565b6107be60405192839283526040602084015260408301906142d4565b0390a1005b34610410576000366003190112610410576011546040516001600160a01b039091168152602090f35b3461041057602036600319011261041057601154610681906001600160a01b03166108183382146147b5565b60043560125560405161082a816141f2565b602e81527f596f752068617665207375636365737366756c6c79207570646174656420526560208201526d67697374726174696f6e2066656560901b6040820152610627614d10565b346104105760203660031901126104105761088c614d31565b50600435600052600860205260a060406000206004604051916108ae8361416a565b805483526001810154602084015260028101546040840152600381015460608401520154608082015261090c604051809260808091805184526020810151602085015260408101516040850152606081015160608501520151910152565bf35b34610410576000366003190112610410576020601054604051908152f35b3461041057606036600319011261041057610945614104565b61094d61411a565b906044356001600160401b0381116104105761096d9036906004016144d8565b92909161098161097c836150e0565b615465565b61098d610305826150e0565b61099781836155d1565b15610b31576109a68183615729565b90604051946109b4866141f2565b60018060a01b039384811687526109d560209687890193428552369161432a565b9360408801948552600052600286526040600020805497600160401b891015610b1b5760018901808355891015610b05576002610ac396610a8f95896106819c610a479660005260038d6000209102019451166001600160601b0360a01b855416178455516001840155519101614877565b604051610a53816141f2565b602281527f596f752068617665207375636365737366756c6c792073656e64206d657373618782015261676560f01b6040820152610627615706565b604051610a9b816141bc565b6014815273596f752068617665206e6577206d65737361676560601b85820152610627615706565b60115416907f6d6573736167652073656e64207375636365737366756c6c790000000000000060405191610af6836141bc565b60198352820152610627615706565b634e487b7160e01b600052603260045260246000fd5b634e487b7160e01b600052604160045260246000fd5b60405162461bcd60e51b815260206004820152602660248201527f596f7520617265206e6f7420667269656e64207769746820746865206769766560448201526537103ab9b2b960d11b6064820152608490fd5b610120366003190112610410576001600160401b0360443581811161041057610bb2903690600401614370565b60643582811161041057610bca903690600401614370565b9060843583811161041057610be3903690600401614370565b9060a43584811161041057610bfc903690600401614370565b9260c43585811161041057610c15903690600401614370565b9460e4356001600160a01b0381169003610410576101043590811161041057610c429036906004016144d8565b959094610c55600e546004351115614bf2565b610c65600d546024351115614b4a565b6024356000526006602052610c8460ff60056040600020015416614c9b565b6014543403610f6057610c9c600a3490810490614d03565b94601054610ca99061480c565b938460105560405195610cbb87614185565b858752602087016004358152604088016024358152606089019142835260808a0193845260a08a0194855260c08a0195865260e08a019687526101008a019788526101208a019860018a526000526009602052604060002099518a555160018a0155516002890155516003880155516004870190610d3891614877565b51610d469060058701614877565b51610d549060068601614877565b51610d629060078501614877565b51610d709060088401614877565b5115159060090190610d8d919060ff801983541691151516179055565b602435600052600660205260406000206003018054610dab9061480c565b905560115460009081908190819081906001600160a01b0316600a340415610f56575b600a340491f115610f41576000808080936024358252600660205260018060a01b03600260408420015416828215610f4d575bf115610f4157610e1591339160e4356154b1565b610e5f604051610e24816141bc565b601a81527f596f7520686176652061206e6577206170706f696e746d656e740000000000006020820152610e56614ce0565b9060e435614962565b610eb4604051610e6e816141f2565b602b81527f596f752068617665207375636365737366756c6c7920626f6f6b656420616e2060208201526a185c1c1bda5b9d1b595b9d60aa1b60408201526105a4614ce0565b601154604051610efc916001600160a01b031690610ed1816141bc565b601681527513995dc8185c1c1bda5b9d1b595b9d08189bdbdad95960521b6020820152610627614ce0565b7f3ac6f9df28ef09d1b346be1f7d771f61872f07de8da7b88f490fe4f61b2b3e2c608060105460405190815260043560208201526024356040820152426060820152a1005b6040513d6000823e3d90fd5b506108fc610e01565b6108fc9150610dce565b60405162461bcd60e51b815260206004820152601960248201527f496e636f7272656374206170706f696e746d656e7420666565000000000000006044820152606490fd5b3461041057600036600319011261041057601054610fc281614f5c565b9060018060005b83831115610fdf57604051806104ac878261445f565b6110a26110a89184600052600960ff60209180835260406000206040519361100685614185565b81548552888201549085015260028101546040850152600381015460608501526110326004820161422e565b60808501526110436005820161422e565b60a08501526110546006820161422e565b60c08501526110656007820161422e565b60e08501526110766008820161422e565b61010085015201541615156101208201526110918289614dac565b5261109c8188614dac565b5061480c565b9261480c565b91610fc9565b34610410576020366003190112610410576110c76150a7565b5060043560005260056020526104ac604060002060ff6006604051926110ec846141d7565b805484526110fc6001820161422e565b602085015260028101546040850152600381015460608501526004810154608085015261112b6005820161422e565b60a0850152015416151560c082015260405191829160208352602083019061473a565b34610410576000366003190112610410576020601254604051908152f35b346104105760a0366003190112610410576001600160401b036004358181116104105761119d903690600401614370565b608435918211610410576111d67f4bd6730197eeaa6a5861ee6770b4a7ea4945e177c1b8f8e196812da34b52b620923690600401614370565b6111eb60018060a01b036011541633146147b5565b6112966111f9600c5461480c565b80600c5560066040519161120c836141d7565b808352611280602084018781526040850160243581526060860160443581526080870191606435835261126460a08901948b865260c08a0197600189526000526005602052604060002099518a555160018a01614877565b5160028801555160038701555160048601555160058501614877565b51151591019060ff801983541691151516179055565b6112ef6040516112a5816141f2565b602f81527f4e6577204d65646963696e6520616464656420746f206d61726b6574706c616360208201526e65207375636365737366756c6c792160881b60408201526105a461493e565b6107be600c549161131260405194859485526060602086015260608501906142d4565b9083820360408501526142d4565b34610410576000366003190112610410576020601454604051908152f35b3461041057602036600319011261041057601154610681906001600160a01b031661136a3382146147b5565b60043560135560405161137c816141f2565b603681527f596f752068617665207375636365737366756c6c7920757064617465642050616020820152757469656e7420526567697374726174696f6e2066656560501b6040820152610627614d10565b3461041057600036600319011261041057600d546001906000825b828111156114b857506113fa90614fde565b91600090805b8381111561141657604051806104ac878261463a565b8060005260206006815260ff600581816040600020015416611444575b50505061143f9061480c565b611400565b9161143f9395916114af93604060002060405193611461856141a1565b8154855261147089830161422e565b9085015260028101546001600160a01b031660408501526003810154606085015260048101546080850152015416151560a08201526110918289614dac565b92908680611433565b80600052600660205260ff600560406000200154166114e0575b6114db9061480c565b6113e8565b906114ed6114db9161480c565b9190506114d2565b34610410576020366003190112610410576004356000526005602052604060002080546115246001830161422e565b916115866002820154600383015492600481015460ff60066115486005850161422e565b9301541694611569604051988998895260e060208a015260e08901906142d4565b9360408801526060870152608086015284820360a08601526142d4565b90151560c08301520390f35b34610410576020366003190112610410577f954090adef24b59354b88966afb6b169cf1790275cc1c22d9d599cfa745041a56004356115dc60018060a01b036011541633146147b5565b6115ea600c54821115614a90565b6000818152600560205260409020600601805460ff818116151660ff1990911617905561165b60405161161c816141f2565b602481527f4d65646963696e65207374617475732075706461746564207375636365737366602082015263756c6c7960e01b60408201526105a461493e565b60008181526005602090815260409182902060060154825193845260ff16151590830152819081016107be565b34610410577f611a96f8a84b78b34d3917accd31d6e94ffc712cdd95a8ce7b8e2f9c5e093ae960406116b936614314565b6116ce60018060a01b036011541633146147b5565b6116dc600c54831115614a90565b81600052600560205280600484600020015561173c83516116fc816141f2565b602681527f4d65646963696e6520646973636f756e742075706461746564207375636365736020820152657366756c6c7960d01b858201526105a461493e565b82519182526020820152a1005b6080366003190112610410576001600160401b0360043581811161041057611775903690600401614370565b61177d61411a565b604435838111610410576117959036906004016144d8565b90606435858111610410576117ae903690600401614370565b916117bc6012543414614adc565b60018060a01b03928385169283600052602093600a855260ff604060002054166119e8576118846117ee600d5461480c565b80600d55600560405191611801836141a1565b808352888084018d815260408501878152611849606087019260008452600660808901956000875260a08a019760008952600052526040600020975188555160018801614877565b8c600287019151166001600160601b0360a01b82541617905551600385015551600484015551151591019060ff801983541691151516179055565b600052600a84526040600020600160ff1982541617905560008080808860115416819034156119de575b3491f115610f41576118c1928691615122565b60405191608083019583871090871117610b1b576119716119cb937f8c4e93915e8e9956f3984eef613c813c83672180f22083646e395379663dd76997604052604981527f596f752068617665207375636365737366756c6c7920636f6d706c6574656420848201527f74686520726567697374726174696f6e2c206e6f7720776174696e6720666f7260408201526808185c1c1c9bdd985b60ba1b606082015261196a614b28565b9086614962565b60115416907f4e657720646f63746f72206973207265676973746f722c206e6f772077617469604051916119a4836141f2565b602f83528201526e1b99c8199bdc88185c1c1c9bdd985b608a1b6040820152610627614b28565b6107be600d54916040519384938461470c565b6108fc91506118ae565b60405162461bcd60e51b815260048101869052601c60248201527f446f63746f7220697320616c72656164792072656769737465726564000000006044820152606490fd5b34610410576000366003190112610410576020600f54604051908152f35b3461041057602080600319360112610410576001600160a01b039081611a6f614104565b166000526001808252611a8860026040600020016153ea565b926040519280840190808552855180925260408501928160408460051b8801019701936000915b848310611abc5787890388f35b9091929394958480611aec839b603f198c82030187526040838c51888151168452015191818582015201906142d4565b9a980196959491909101920190611aaf565b3461041057600036600319011261041057611b17614fac565b50611b20614fac565b600090600180600d54915b82811115611b4957604051602080825281906104ac908201876145e9565b8060005260066020818152600380604060002001546004604060002001548101809111611c0057888111611b8a575b50505050611b859061480c565b611b2b565b60ff92939850611b85949750906005919888600052845260406000209060405194611bb4866141a1565b82548652611bc388840161422e565b9086015260028201546001600160a01b03166040860152810154606085015260048101546080850152015416151560a08201529390868080611b78565b634e487b7160e01b600052601160045260246000fd5b3461041057604036600319011261041057611c3f611c32614104565b611c3a61411a565b615729565b6000526002602081815260406000208054611c59816144c1565b93611c67604051958661420d565b81855260009283528383208486019391845b848410611cff57604080518881528951818a01819052600092600582901b83018101918a918c9085015b828710611cb05785850386f35b909192938280611cef600193603f198a820301865260408951868060a01b038151168352848101518584015201519060609081604082015201906142d4565b9601920196019592919092611ca3565b60038760019260409a999a51611d14816141f2565b848060a01b0387541681528487015483820152611d3286880161422e565b6040820152815201930193019291969596611c79565b346104105760208060031936011261041057600435611d6b600e54821115614bf2565b6000818152600783526040902060030154336001600160a01b0391821614908115611e27575b5015611dc35760005260078152611dae6002604060002001614dec565b906104ac604051928284938452830190614539565b60405162461bcd60e51b815260048101839052603660248201527f4f6e6c79207468652070617469656e74206f722061646d696e2063616e207669604482015275657720746865206d65646963616c20686973746f727960501b6064820152608490fd5b905060115416331483611d91565b3461041057611e4336614314565b906000526004602052604060002080548210156104105760c091611e6691614799565b5080549060018101549060028101546003820154906005600484015493015493604051958652602086015260408501526060840152608083015260a0820152f35b34610410576000366003190112610410576020600e54604051908152f35b3461041057600036600319011261041057600c54611ee2816144c1565b611eef604051918261420d565b818152601f19611efe836144c1565b0160005b818110612013575060019290508260005b82821115611f7e578385604051906020808301818452845180915260408401918060408360051b8701019601926000905b838210611f515786880387f35b90919293948380611f6d839a603f198b8203018652895161473a565b999701959493919091019101611f44565b61200761200d91836000528660ff60066005611fe3602091808352604060002092611fba60405197611faf896141d7565b85548952850161422e565b90870152600283015460408701526003830154606087015260048301546080870152820161422e565b60a0850152015416151560c0820152611ffc8288614dac565b5261109c8187614dac565b9161480c565b90611f13565b60209061201e6150a7565b82828601015201611f02565b34610410576020366003190112610410576001600160a01b0361204b614104565b16600052600b602052602060ff604060002054166040519015158152f35b34610410576020366003190112610410576004356000526007602052604060002080546104ac61209b6001840161422e565b92600360018060a01b03910154166040519384938461470c565b3461041057600036600319011261041057600f546120d281614d5c565b9060018060005b838311156120ef57604051806104ac878261469c565b6110a2612145918460005260206008815260046040600020604051926121148461416a565b8154845287820154908401526002810154604084015260038101546060840152015460808201526110918289614dac565b916120d9565b346104105760208060031936011261041057600435612168614f11565b50612177601054821115614c4f565b806000526009825260016040600020015461219133614e90565b1480156122b2575b15612252576000526009815260406000209060ff6009604051936121bc85614185565b8054855260018101548486015260028101546040860152600381015460608601526121e96004820161422e565b60808601526121fa6005820161422e565b60a086015261220b6006820161422e565b60c086015261221c6007820161422e565b60e086015261222d6008820161422e565b61010086015201541615156101208301526104ac6040519282849384528301906143bd565b60405162461bcd60e51b815260048101839052603260248201527f4f6e6c79207468652070617469656e74206f722061646d696e2063616e207669604482015271195dc81d1a1948185c1c1bda5b9d1b595b9d60721b6064820152608490fd5b506011546001600160a01b03163314612199565b3461041057600036600319011261041057600e546122e3816144c1565b6122f0604051918261420d565b818152601f196122ff836144c1565b0160005b8181106123f9575060019290508260005b8282111561237f578385604051906020808301818452845180915260408401918060408360051b8701019601926000905b8382106123525786880387f35b9091929394838061236e839a603f198b8203018652895161458e565b999701959493919091019101612345565b6120076123f391836000526020600781526123e460046040600020604051936123a78561416a565b815485526123b68c830161422e565b908501526123c660028201614dec565b604085015260038101546001600160a01b0316606085015201614e41565b6080820152611ffc8288614dac565b90612314565b602090612404614dc0565b82828601015201612303565b6060366003190112610410576004356024803590604435612435600e54851115614bf2565b612443600c54841115614a90565b836000526020916007835260018060a01b039182600360406000200154163303612769578460005260059081855260ff600660406000200154161561272c578560005281855280600360406000200154106126e8578560005281855260026040600020015490808202918083048214901517156126d3578660005282865260036040600020016124d4828254614d03565b905587600052600786526004604060002001908154600160401b92838210156126be57816125089160018c94018155614c37565b819291549060031b600019811b9283911b1691191617905588600052600487526040600020928860005284885260026040600020015460405161254a816141a1565b8a8152898101918252604081019283526060810193845260808101948c865260a08201964288528054918210156126a9579061258b91600182018155614799565b989098612695577f1d62f96054391d98915909b52fc6b2182af4ce3748f5ddd6c0047dd725a969df60408e8e8e61268a8f8f8f8f8f8f8f8f8f5187555160018701555160028601555160038501555160048401555191015561262f86516125f1816141f2565b602581527f596f752068617665207375636365737366756c6c7920626f75676874206d656485820152646963696e6560d81b888201526105a4614ce0565b60115416855161263e816141f2565b603381527f5472616e73616374696f6e20636f6d706c657465642c206d61646963696e65208482015272626f75676874207375636365737366756c6c7960681b87820152610627614ce0565b8351928352820152a1005b634e487b7160e01b60005260006004526000fd5b89634e487b7160e01b60005260416004526000fd5b86634e487b7160e01b60005260416004526000fd5b83634e487b7160e01b60005260116004526000fd5b60405162461bcd60e51b815260048101869052601c818501527f4e6f7420656e6f756768206d65646963696e6520696e2073746f636b000000006044820152606490fd5b60405162461bcd60e51b815260048101869052601681850152754d65646963696e65206973206e6f742061637469766560501b6044820152606490fd5b60405162461bcd60e51b8152600481018590526027818401527f4f6e6c79207468652070617469656e742063616e20627579207468656972206d60448201526665646963696e6560c81b6064820152608490fd5b34610410576000366003190112610410576000546127da816144c1565b906127e8604051928361420d565b8082526000808052602091828401917f290decd9548b62a8d60345a988386fc84ba6bc95484008f6362f93160ef3e563835b83831061289d5750505050604051918083019381845251809452604083019360408160051b85010192916000955b8287106128555785850386f35b909192938280600192603f198982030185528751908261287e83516040845260408401906142d4565b9281878060a01b03910151169101529601920196019592919092612848565b6002866001926040999899516128b2816141bc565b6128bb8661422e565b8152848060a01b0385870154168382015281520192019201919095949561281a565b346104105760208060031936011261041057600f54600435916001906000825b848111156129b1575061290f90614d5c565b93600091835b8581111561292b57604051806104ac898261469c565b8060005260088252600283816040600020015414612953575b5061294e9061480c565b612915565b61294e91946129aa9160046040600020604051926129708461416a565b815484528a820154888501528101546040840152600381015460608401520154608082015261299f828b614dac565b5261109c818a614dac565b9390612944565b806000526008835285600260406000200154146129d7575b6129d29061480c565b6128fd565b906129e46129d29161480c565b9190506129c9565b34610410576000366003190112610410576020600d54604051908152f35b3461041057600036600319011261041057600d54612a2781614fde565b9060018060005b83831115612a4457604051806104ac878261463a565b6110a2612a6b918460005260206006815260ff6005604060002060405193611461856141a1565b91612a2e565b3461041057602036600319011261041057612a8a614dc0565b5060043560005260076020526104ac6040600020612ad1600460405192612ab08461416a565b80548452612ac06001820161422e565b60208501526123c660028201614dec565b608082015260405191829160208352602083019061458e565b346104105760208060031936011261041057600435612b0d600d54821115614b4a565b6000906001928392601054935b84811115612c225750612b2c90614f5c565b93600091815b85811115612b4857604051806104ac898261445f565b80600052600980835260029086826040600020015414612b73575b5050612b6e9061480c565b612b32565b94612c1a9160ff612b6e9497604060002060405193612b9185614185565b815485528982015489860152810154604085015260038101546060850152612bbb6004820161422e565b6080850152612bcc6005820161422e565b60a0850152612bdd6006820161422e565b60c0850152612bee6007820161422e565b60e0850152612bff6008820161422e565b610100850152015416151561012082015261299f828b614dac565b939088612b63565b80600052600983528360026040600020015414612c48575b612c439061480c565b612b1a565b90612c55612c439161480c565b919050612c3a565b3461041057602036600319011261041057600435600052600660205260406000208054612c8c6001830161422e565b9160018060a01b036002820154169060038101549060ff600560048301549201541691612ccb604051968796875260c0602088015260c08701906142d4565b93604086015260608501526080840152151560a08301520390f35b3461041057602036600319011261041057600435612d08600e54821115614bf2565b60005260076020526104ac612d236004604060002001614e41565b604051918291602083526020830190614505565b610100366003190112610410576004356001600160401b03811161041057612d63903690600401614370565b602435906001600160401b0382116104105736602383011215610410578160040135612d8e816144c1565b92612d9c604051948561420d565b8184526024602085019260051b820101903682116104105760248101925b8284106132935785856044356001600160a01b038116900361041057606435916001600160401b038311610410573660238401121561041057826004013592612e02846144c1565b93612e10604051958661420d565b8085526024602086019160051b8301019136831161041057602401905b828210613283575050506084356001600160401b03811161041057612e569036906004016144d8565b60a4356001600160a01b03811690036104105760c4356001600160401b03811161041057612e889036906004016144d8565b909160e4356001600160401b03811161041057612ea9903690600401614370565b96612eb76013543414614adc565b6044356001600160a01b03166000908152600b602052604090205460ff1661323e57612ee4600e5461480c565b9081600e5560405190612ef68261416a565b8282526020820192898452604083019189835260018060a01b0360443516606085015260808401526000526007602052612f3d604060002093835185555160018501614877565b51805190600160401b8211610b1b5760028401548260028601558083106131bf575b506020016002840160005260206000206000915b8383106131a25750505060608201516003840180546001600160a01b0319166001600160a01b03929092169190911790555060800151805191906001600160401b038311610b1b57600160401b8311610b1b576020600491828401548584860155808610613183575b50019101600052602060002060005b83811061316f57505050506044356001600160a01b039081166000908152600b60205260408120805460ff1916600117905560115490918291829182918291163415613165575b3491f115610f41577fc66c47c46a9613cb876ef0205ca8c4597eb05703969f8458f4a762107e865dc2966130799461306d9260443591615122565b6044359160a4356154b1565b6130d8604051613088816141f2565b602c81527f596f752068617665207375636365737366756c6c7920636f6d706c657465642060208201526b3932b3b4b9ba3930ba34b7b760a11b60408201526130cf614ce0565b90604435614962565b601154604051613134916001600160a01b0316906130f5816141f2565b602481527f4e65772050617469656e74206973207265676973746f72207375636365737366602082015263756c6c7960e01b6040820152610627614ce0565b6107be600e549161315760405194859485526060602086015260608501906142d4565b908382036040850152614539565b6108fc9150613032565b600190602084519401938184015501612feb565b61319c908486016000528684600020918201910161481b565b8c612fdc565b60016020826131b383945186614877565b01920192019190612f73565b600285016000526020600020908382015b81830181106131e0575050612f5f565b806131ed60019254614130565b806131fa575b50016131d0565b601f908181118414613213575050600081555b8f6131f3565b8361322f92846000526020600020920160051c8201910161481b565b6000602081208183555561320d565b60405162461bcd60e51b815260206004820152601d60248201527f50617469656e7420697320616c726561647920726567697374657265640000006044820152606490fd5b8135815260209182019101612e2d565b83356001600160401b038111610410576020916132b7839260243691870101614370565b815201930192612dba565b3461041057602080600319360112610410576004356132e5600e54821115614bf2565b6000526004815260406000209081546132fd816144c1565b9061330b604051928361420d565b8082528282018094600052836000206000915b8383106133925760408051878152865181890181905289928201908960005b82811061334a5784840385f35b855180518552808301518584015260408082015190860152606080820151908601526080808201519086015260a090810151908501529481019460c09093019260010161333d565b6006866001926040516133a4816141a1565b855481528486015483820152600286015460408201526003860154606082015260048601546080820152600586015460a082015281520192019201919061331e565b34610410576020806003193601126104105760043560018060a01b03613411816011541633146147b5565b61341f600d54831115614b4a565b816000526006835260ff6005604060002001541661354957600082815260068085526040909120600501805460ff818116151660ff199091161790557ffb071d6299bd71490cb62d5ce7358d7d43ab700c9b4a8bff1f869d2d52c0f11793909161351f906134d1604051613492816141f2565b602581527f596f75206861766520617070726f76656420446f636f74722072656769737472858201526430ba34b7b760d91b60408201526105a4614b28565b84600052838352600260406000200154166040516134ee816141bc565b601d81527f596f757220726567697374726174696f6e20697320617070726f76656400000084820152610627614b28565b600083815291905260409081902060050154815192835260ff1615156020830152819081016107be565b60405162461bcd60e51b815260048101849052601a60248201527f446f63746f7220697320616c726561647920617070726f7665640000000000006044820152606490fd5b3461041057602080600319360112610410576004356135b1600e54821115614bf2565b60105490600060015b838111156136cd57506135cc90614f5c565b9260009160015b848111156135e957604051806104ac888261445f565b8060005260098084528260016040600020015414613611575b5061360c9061480c565b6135d3565b61360c91946136c69160ff6040600020916040519261362f84614185565b80548452600181015489850152600281015460408501526003810154606085015261365c6004820161422e565b608085015261366d6005820161422e565b60a085015261367e6006820161422e565b60c085015261368f6007820161422e565b60e08501526136a06008820161422e565b61010085015201541615156101208201526136bb828a614dac565b5261109c8189614dac565b9390613602565b806000526009855282600160406000200154146136f3575b6136ee9061480c565b6135ba565b906137006136ee9161480c565b9190506136e5565b34610410576000366003190112610410576020601354604051908152f35b34610410576000366003190112610410576020600c54604051908152f35b34610410576020366003190112610410576001600160a01b03613765614104565b16600052600a602052602060ff604060002054166040519015158152f35b34610410577f72c1daf6e13ce6ca90b14e03629096ad6d0db94b6cffdce97e62cf5008ab1fd460406137b436614314565b6137c960018060a01b036011541633146147b5565b6137d7600c54831115614a90565b81600052600560205280600284600020015561173c83516137f7816141f2565b602381527f4d65646963696e652070726963652075706461746564207375636365737366756020820152626c6c7960e81b858201526105a461493e565b346104105761068161384536614314565b336000527f90d667bfa211b72f96ed398bbcfae5988d97e3a4c929a0f5d46888f6899d77a081602093600a855261388360ff60406000205416614b8e565b61388c3361502e565b600052600685526138a760ff60056040600020015416614c9b565b6138b2600f5461480c565b80600f5560046138c13361502e565b91604051926138cf8461416a565b818452888401858152604085019087825260608601928352608086019342855260005260088b5260406000209551865551600186015551600285015551600384015551910155613951600f546139243361502e565b6040519485944293869192608093969594919660a084019784526020840152604083015260608201520152565b0390a16139a6604051613963816141f2565b602981527f596f752068617665207375636365737366756c6c7920707265736372696265648482015268206d65646963696e6560b81b60408201526105a4614b28565b6000526007815260018060a01b036139ff81600360406000200154166040516139ce816141bc565b601e81527f446f63746f72207072657363726962656420796f75206d65646963696e65000085820152610627614b28565b60115416907f446f63746f722070726573637269626564206d65646963696e6520737563636560405191613a32836141f2565b6027835282015266737366756c6c7960c81b6040820152610627614b28565b3461041057613a5f3661438e565b9033600052602090600a8252613a7c60ff60406000205416614b8e565b613a8a600e54821115614bf2565b806000526007825260026040600020018054600160401b811015610b1b57613ab791600182018155614c37565b613bd65761068193613ac891614877565b613b26604051613ad7816141f2565b603581527f596f752068617665207375636365737366756c6c79207570646174652c20706184820152747469656e74206d65646963616c20686973746f727960581b60408201526105a4614b28565b60005260078152613b8d60018060a01b0360036040600020015416604051613b4d816141f2565b602681527f596f7572206d65646963616c20686973746f727920757064617465642062792084820152653237b1ba37b960d11b6040820152610627614b28565b7f50617469656e74206d6564696369616c20686973746f7279206973207570646160405191613bbb836141f2565b60238352820152621d195960ea1b60408201526105a4614b28565b634e487b7160e01b600052600060045260246000fd5b34610410576020366003190112610410576004356000526008602052604060002080546104ac6001830154926002810154906004600382015491015491604051958695869192608093969594919660a084019784526020840152604083015260608201520152565b34610410577f1e689cd9ac52751e42953a5acd30b7eac0cc9804ec5c814b2cb6bff6e8ab852b6040613c8536614314565b613c9a60018060a01b036011541633146147b5565b613ca8600c54831115614a90565b81600052600560205280600384600020015561173c8351613cc8816141f2565b602681527f4d65646963696e65207175616e746974792075706461746564207375636365736020820152657366756c6c7960d01b858201526105a461493e565b3461041057602080600319360112610410576001600160a01b039081613d2c614104565b166000526003908181526040600020908154613d47816144c1565b93613d55604051958661420d565b81855260009384528284208386019491855b848410613e0f575050505050604051928184019082855251809152604084019160408260051b86010193926000965b838810613da35786860387f35b90919293948380613dfe600193603f198b820301875289518051825286848201511684830152613de1604082015160a08060408601528401906142d4565b9160608083015190820152608080920151918184039101526142d4565b970193019701969093929193613d96565b60058660019260409a989a51613e248161416a565b865481528c858801541683820152613e3e6002880161422e565b6040820152858701546060820152613e586004880161422e565b6080820152815201930193019291969496613d67565b34610410576020366003190112610410576020613e91613e8c614104565b6150e0565b6040519015158152f35b3461041057602036600319011261041057600435600052600960205260406000208054600182015491600281015490600381015460048201613edc9061422e565b613ee86005840161422e565b613ef46006850161422e565b91613f016007860161422e565b93613f0e6008870161422e565b956009015460ff1696604051998a998a5260208a0152604089015260608801526101408060808901528701613f42916142d4565b86810360a0880152613f53916142d4565b85810360c0870152613f64916142d4565b84810360e0860152613f75916142d4565b838103610100850152613f87916142d4565b9015156101208301520390f35b34610410576020366003190112610410576020613fb7613fb2614104565b61502e565b604051908152f35b34610410576020366003190112610410576020613fb7613fdd614104565b614e90565b3461041057602036600319011261041057601154610681906001600160a01b031661400e3382146147b5565b600435601455604051614020816141f2565b602d81527f596f752068617665207375636365737366756c6c79207570646174656420417060208201526c706f696e746d656e742066656560981b6040820152610627614d10565b34610410576020366003190112610410576001600160a01b03600435818116908190036104105780610681926140a460115491821633146147b5565b6001600160a01b031916176011556040516140be816141f2565b602b81527f596f752068617665207375636365737366756c6c79207570646174656420616460208201526a6d696e206164647265737360a81b6040820152610627614d10565b600435906001600160a01b038216820361041057565b602435906001600160a01b038216820361041057565b90600182811c92168015614160575b602083101461414a57565b634e487b7160e01b600052602260045260246000fd5b91607f169161413f565b60a081019081106001600160401b03821117610b1b57604052565b61014081019081106001600160401b03821117610b1b57604052565b60c081019081106001600160401b03821117610b1b57604052565b604081019081106001600160401b03821117610b1b57604052565b60e081019081106001600160401b03821117610b1b57604052565b606081019081106001600160401b03821117610b1b57604052565b90601f801991011681019081106001600160401b03821117610b1b57604052565b906040519182600082549261424284614130565b9081845260019485811690816000146142b1575060011461426e575b505061426c9250038361420d565b565b9093915060005260209081600020936000915b81831061429957505061426c9350820101388061425e565b85548884018501529485019487945091830191614281565b91505061426c94506020925060ff191682840152151560051b820101388061425e565b919082519283825260005b848110614300575050826000602080949584010152601f8019910116010190565b6020818301810151848301820152016142df565b6040906003190112610410576004359060243590565b9291926001600160401b038211610b1b5760405191614353601f8201601f19166020018461420d565b829481845281830111610410578281602093846000960137010152565b9080601f830112156104105781602061438b9335910161432a565b90565b9060406003198301126104105760043591602435906001600160401b0382116104105761438b91600401614370565b908151815260208201516020820152604082015160408201526060820151606082015261444f61443b61442961441761440560808701516101408060808901528701906142d4565b60a087015186820360a08801526142d4565b60c086015185820360c08701526142d4565b60e085015184820360e08601526142d4565b6101008085015190848303908501526142d4565b9161012080910151151591015290565b602080820190808352835180925260408301928160408460051b8301019501936000915b8483106144935750505050505090565b90919293949584806144b1600193603f198682030187528a516143bd565b9801930193019194939290614483565b6001600160401b038111610b1b5760051b60200190565b9181601f84011215610410578235916001600160401b038311610410576020838186019501011161041057565b90815180825260208080930193019160005b828110614525575050505090565b835185529381019392810192600101614517565b90815180825260208092019182818360051b85019501936000915b8483106145645750505050505090565b909192939495848061457e83856001950387528a516142d4565b9801930193019194939290614554565b61438b918151815260806145c66145b4602085015160a0602086015260a08501906142d4565b60408501518482036040860152614539565b9260018060a01b0360608201511660608401520151906080818403910152614505565b908151815260a08061460a602085015160c0602086015260c08501906142d4565b93600180831b03604082015116604085015260608101516060850152608081015160808501520151151591015290565b602080820190808352835180925260408301928160408460051b8301019501936000915b84831061466e5750505050505090565b909192939495848061468c600193603f198682030187528a516145e9565b980193019301919493929061465e565b6020908160408183019282815285518094520193019160005b8281106146c3575050505090565b909192938260a082614700600194895160808091805184526020810151602085015260408101516040850152606081015160608501520151910152565b019501939291016146b5565b9161472a9060409295949584526060602085015260608401906142d4565b6001600160a01b03909416910152565b908151815260c08061478e61475e602086015160e0602087015260e08601906142d4565b60408601516040860152606086015160608601526080860151608086015260a086015185820360a08701526142d4565b930151151591015290565b8054821015610b05576000526006602060002091020190600090565b156147bc57565b60405162461bcd60e51b815260206004820152602260248201527f4f6e6c792061646d696e2063616e20706572666f726d2074686973206163746960448201526137b760f11b6064820152608490fd5b6000198114611c005760010190565b818110614826575050565b6000815560010161481b565b9190601f811161484157505050565b61426c926000526020600020906020601f840160051c8301931061486d575b601f0160051c019061481b565b9091508190614860565b91909182516001600160401b038111610b1b5761489e816148988454614130565b84614832565b602080601f83116001146148da5750819293946000926148cf575b50508160011b916000199060031b1c1916179055565b0151905038806148b9565b90601f198316958460005282600020926000905b8882106149265750508360019596971061490d575b505050811b019055565b015160001960f88460031b161c19169055388080614903565b806001859682949686015181550195019301906148ee565b6040519061494b826141bc565b60088252674d65646963696e6560c01b6020830152565b6001600160a01b0390811660008181526003602052604080822054815193969194919291906149908561416a565b84526020840187815285850191878352606086019342855260808701958652898152600360205287812090815491600160401b831015614a7c5760018301808255831015614a6857937f9c26059514ab57d9b1c23a991546f58e9339e76427bf2909f3eb15feb61cd5719a99989693614a3c936005602085614a4a9c9960049b97522091020197518855600188019151166001600160601b0360a01b8254161790555160028601614877565b516003840155519101614877565b614a5d81519282849384528301906142d4565b4260208301520390a2565b634e487b7160e01b82526032600452602482fd5b634e487b7160e01b82526041600452602482fd5b15614a9757565b60405162461bcd60e51b815260206004820152601760248201527f4d65646963696e6520646f6573206e6f742065786973740000000000000000006044820152606490fd5b15614ae357565b60405162461bcd60e51b815260206004820152601a60248201527f496e636f727265637420726567697374726174696f6e206665650000000000006044820152606490fd5b60405190614b35826141bc565b60068252652237b1ba37b960d11b6020830152565b15614b5157565b60405162461bcd60e51b8152602060048201526015602482015274111bd8dd1bdc88191bd95cc81b9bdd08195e1a5cdd605a1b6044820152606490fd5b15614b9557565b60405162461bcd60e51b815260206004820152602f60248201527f4f6e6c79207265676973746572656420646f63746f72732063616e207065726660448201526e37b936903a3434b99030b1ba34b7b760891b6064820152608490fd5b15614bf957565b60405162461bcd60e51b815260206004820152601660248201527514185d1a595b9d08191bd95cc81b9bdd08195e1a5cdd60521b6044820152606490fd5b8054821015610b055760005260206000200190600090565b15614c5657565b60405162461bcd60e51b815260206004820152601a60248201527f4170706f696e746d656e7420646f6573206e6f742065786973740000000000006044820152606490fd5b15614ca257565b60405162461bcd60e51b8152602060048201526016602482015275111bd8dd1bdc881a5cc81b9bdd08185c1c1c9bdd995960521b6044820152606490fd5b60405190614ced826141bc565b600782526614185d1a595b9d60ca1b6020830152565b91908203918211611c0057565b60405190614d1d826141bc565b600582526420b236b4b760d91b6020830152565b60405190614d3e8261416a565b60006080838281528260208201528260408201528260608201520152565b90614d66826144c1565b614d73604051918261420d565b8281528092614d84601f19916144c1565b019060005b828110614d9557505050565b602090614da0614d31565b82828501015201614d89565b8051821015610b055760209160051b010190565b60405190614dcd8261416a565b6060608083600081528260208201528260408201526000838201520152565b908154614df8816144c1565b92614e06604051948561420d565b818452600090815260208082208186015b848410614e25575050505050565b6001838192614e338561422e565b815201920193019290614e17565b9060405191828154918282526020928383019160005283600020936000905b828210614e765750505061426c9250038361420d565b855484526001958601958895509381019390910190614e60565b600e5490600060015b83811115614eda5760405162461bcd60e51b815260206004820152601160248201527014185d1a595b9d081b9bdd08199bdd5b99607a1b6044820152606490fd5b808252600760205260408220600301546001600160a01b03848116911614614f0a57614f059061480c565b614e99565b9250505090565b60405190614f1e82614185565b600061012083828152826020820152826040820152606083818301528060808301528060a08301528060c08301528060e08301526101008201520152565b90614f66826144c1565b614f73604051918261420d565b8281528092614f84601f19916144c1565b019060005b828110614f9557505050565b602090614fa0614f11565b82828501015201614f89565b60405190614fb9826141a1565b600060a083828152606060208201528260408201528260608201528260808201520152565b90614fe8826144c1565b614ff5604051918261420d565b8281528092615006601f19916144c1565b019060005b82811061501757505050565b602090615022614fac565b8282850101520161500b565b600d5490600060015b838111156150775760405162461bcd60e51b815260206004820152601060248201526f111bd8dd1bdc881b9bdd08199bdd5b9960821b6044820152606490fd5b808252600660205260408220600201546001600160a01b03848116911614614f0a576150a29061480c565b615037565b604051906150b4826141d7565b600060c08382815260606020820152826040820152826060820152826080820152606060a08201520152565b6001600160a01b031660009081526001602052604090205461510190614130565b151590565b8054821015610b055760005260206000209060011b0190600090565b929061512d836150e0565b61536a5780156153255760018060a01b0380931693600091858352600191602091838352604085206001600160401b039687831161531157615173836148988454614130565b869183601f81116001146152a9576151b093899161529e575b50600019600386901b1c191684881b1790555b898752858552856040882001614877565b6040519560408701908782109082111761528a576040526151d39136919061432a565b84528301948552815491600160401b83101561527657818301808255831015615262579161524b91837f290decd9548b62a8d60345a988386fc84ba6bc95484008f6362f93160ef3e5649594521b9151827f290decd9548b62a8d60345a988386fc84ba6bc95484008f6362f93160ef3e56301614877565b019151166001600160601b0360a01b825416179055565b634e487b7160e01b81526032600452602490fd5b634e487b7160e01b81526041600452602490fd5b634e487b7160e01b86526041600452602486fd5b90508501353861518c565b50808852858820889385601f1981165b898b8289106152f75750506151b09650106152dd575b50508684811b01905561519f565b860135600019600387901b60f8161c1916905538806152cf565b848b013586559781019790940193909201918791506152b9565b634e487b7160e01b87526041600452602487fd5b60405162461bcd60e51b815260206004820152601860248201527f557365726e616d652063616e6e6f7420626520656d70747900000000000000006044820152606490fd5b60405162461bcd60e51b81526020600482015260136024820152725573657220616c72656164792065786973747360681b6044820152606490fd5b156153ac57565b60405162461bcd60e51b8152602060048201526016602482015275155cd95c881a5cc81b9bdd081c9959da5cdd195c995960521b6044820152606490fd5b9081546153f6816144c1565b926040936154068551918261420d565b828152809460208092019260005281600020906000935b85851061542c57505050505050565b600284600192845161543d816141bc565b848060a01b03875416815261545385880161422e565b8382015281520193019401939161541d565b1561546c57565b60405162461bcd60e51b815260206004820152601760248201527f43726561746520616e206163636f756e742066697273740000000000000000006044820152606490fd5b9192906154c061097c836150e0565b6154c9836150e0565b1561558c576001600160a01b03828116919084168214615538576154ed84846155d1565b156154fa575b5050505050565b61550c6155139161552e96369161432a565b8484615675565b6000526001602052615528604060002061422e565b91615675565b38808080806154f3565b60405162461bcd60e51b815260206004820152602660248201527f55736572732063616e6e6f7420616464207468656d73656c76657320617320666044820152657269656e647360d01b6064820152608490fd5b60405162461bcd60e51b815260206004820152601760248201527f55736572206973206e6f742072656769737465726564210000000000000000006044820152606490fd5b60018060a01b03906000928282168452600192839260209084825260029160409183838a2001548587168a5284848b2001541061566f575b88975b61561d575b50505050505050905090565b848116885286825283838920015489101561566a57846156418a86868c2001615106565b5054168587161461565e5761565787989961480c565b989761560c565b50505050505091505090565b615611565b94615609565b9190604051615683816141bc565b6001600160a01b03918216815260208082019384529382166000908152600190945260408420600201805490600160401b82101561528a57906156cb91600182018155615106565b9490946156f257505183546001600160a01b03191691161782555161426c91600101614877565b634e487b7160e01b81526004819052602490fd5b60405190615713826141bc565b60078252664d65737361676560c81b6020830152565b906001600160a01b0380821690831610156157875761578161577391604051928391602083019586906028926001600160601b0319809260601b16835260601b1660148201520190565b03601f19810183528261420d565b51902090565b6040516bffffffffffffffffffffffff19606092831b8116602083019081529390921b9091166034820152615781816048810161577356fea2646970667358221220b99e1c8d2ac90a1938b355b3c6606f5d7ce6a124c9bc204f48812e63c6aaabff64736f6c63430008110033",
  "linkReferences": {},
  "deployedLinkReferences": {}
}